{
  "_format": "hh3-artifact-1",
  "contractName": "Catalog",
  "sourceName": "contracts/Catalog.sol",
  "abi": [
    {
      "inputs": [],
      "stateMutability": "nonpayable",
      "type": "constructor"
    },
    {
      "inputs": [
        {
          "internalType": "bytes32",
          "name": "code",
          "type": "bytes32"
        },
        {
          "internalType": "uint256",
          "name": "available",
          "type": "uint256"
        },
        {
          "internalType": "uint256",
          "name": "requested",
          "type": "uint256"
        }
      ],
      "name": "InsufficientStock",
      "type": "error"
    },
    {
      "inputs": [
        {
          "internalType": "bytes32",
          "name": "code",
          "type": "bytes32"
        }
      ],
      "name": "ProductAlreadyExists",
      "type": "error"
    },
    {
      "inputs": [
        {
          "internalType": "bytes32",
          "name": "code",
          "type": "bytes32"
        }
      ],
      "name": "ProductNotFound",
      "type": "error"
    },
    {
      "inputs": [
        {
          "internalType": "bytes32",
          "name": "code",
          "type": "bytes32"
        }
      ],
      "name": "ProductOutOfStock",
      "type": "error"
    },
    {
      "inputs": [],
      "name": "UnauthorizedManager",
      "type": "error"
    },
    {
      "anonymous": false,
      "inputs": [
        {
          "indexed": true,
          "internalType": "address",
          "name": "manager",
          "type": "address"
        }
      ],
      "name": "ManagerAuthorized",
      "type": "event"
    },
    {
      "anonymous": false,
      "inputs": [
        {
          "indexed": true,
          "internalType": "address",
          "name": "manager",
          "type": "address"
        }
      ],
      "name": "ManagerRevoked",
      "type": "event"
    },
    {
      "anonymous": false,
      "inputs": [
        {
          "indexed": true,
          "internalType": "bytes32",
          "name": "code",
          "type": "bytes32"
        },
        {
          "indexed": false,
          "internalType": "uint256",
          "name": "oldPrice",
          "type": "uint256"
        },
        {
          "indexed": false,
          "internalType": "uint256",
          "name": "newPrice",
          "type": "uint256"
        }
      ],
      "name": "PriceUpdated",
      "type": "event"
    },
    {
      "anonymous": false,
      "inputs": [
        {
          "indexed": true,
          "internalType": "bytes32",
          "name": "code",
          "type": "bytes32"
        },
        {
          "indexed": false,
          "internalType": "string",
          "name": "description",
          "type": "string"
        },
        {
          "indexed": false,
          "internalType": "uint256",
          "name": "price",
          "type": "uint256"
        }
      ],
      "name": "ProductAdded",
      "type": "event"
    },
    {
      "anonymous": false,
      "inputs": [
        {
          "indexed": true,
          "internalType": "bytes32",
          "name": "code",
          "type": "bytes32"
        }
      ],
      "name": "PromoEnded",
      "type": "event"
    },
    {
      "anonymous": false,
      "inputs": [
        {
          "indexed": true,
          "internalType": "bytes32",
          "name": "code",
          "type": "bytes32"
        },
        {
          "indexed": false,
          "internalType": "uint256",
          "name": "percent",
          "type": "uint256"
        },
        {
          "indexed": false,
          "internalType": "uint256",
          "name": "duration",
          "type": "uint256"
        }
      ],
      "name": "PromoStarted",
      "type": "event"
    },
    {
      "anonymous": false,
      "inputs": [
        {
          "indexed": true,
          "internalType": "bytes32",
          "name": "code",
          "type": "bytes32"
        },
        {
          "indexed": false,
          "internalType": "uint256",
          "name": "newStock",
          "type": "uint256"
        }
      ],
      "name": "StockUpdated",
      "type": "event"
    },
    {
      "inputs": [
        {
          "internalType": "bytes32",
          "name": "code",
          "type": "bytes32"
        },
        {
          "internalType": "string",
          "name": "description",
          "type": "string"
        },
        {
          "internalType": "uint256",
          "name": "price",
          "type": "uint256"
        },
        {
          "internalType": "uint256",
          "name": "initialStock",
          "type": "uint256"
        }
      ],
      "name": "addProduct",
      "outputs": [],
      "stateMutability": "nonpayable",
      "type": "function"
    },
    {
      "inputs": [],
      "name": "admin",
      "outputs": [
        {
          "internalType": "address",
          "name": "",
          "type": "address"
        }
      ],
      "stateMutability": "view",
      "type": "function"
    },
    {
      "inputs": [
        {
          "internalType": "address",
          "name": "manager",
          "type": "address"
        }
      ],
      "name": "authorizeManager",
      "outputs": [],
      "stateMutability": "nonpayable",
      "type": "function"
    },
    {
      "inputs": [
        {
          "internalType": "address",
          "name": "",
          "type": "address"
        }
      ],
      "name": "authorizedManagers",
      "outputs": [
        {
          "internalType": "bool",
          "name": "",
          "type": "bool"
        }
      ],
      "stateMutability": "view",
      "type": "function"
    },
    {
      "inputs": [
        {
          "internalType": "bytes32",
          "name": "code",
          "type": "bytes32"
        }
      ],
      "name": "calculateFinalPrice",
      "outputs": [
        {
          "internalType": "uint256",
          "name": "",
          "type": "uint256"
        }
      ],
      "stateMutability": "view",
      "type": "function"
    },
    {
      "inputs": [
        {
          "internalType": "bytes32",
          "name": "code",
          "type": "bytes32"
        },
        {
          "internalType": "uint256",
          "name": "amount",
          "type": "uint256"
        }
      ],
      "name": "decreaseStock",
      "outputs": [],
      "stateMutability": "nonpayable",
      "type": "function"
    },
    {
      "inputs": [
        {
          "internalType": "bytes32",
          "name": "code",
          "type": "bytes32"
        }
      ],
      "name": "endPromo",
      "outputs": [],
      "stateMutability": "nonpayable",
      "type": "function"
    },
    {
      "inputs": [
        {
          "internalType": "bytes32",
          "name": "code",
          "type": "bytes32"
        }
      ],
      "name": "getProduct",
      "outputs": [
        {
          "components": [
            {
              "internalType": "bytes32",
              "name": "code",
              "type": "bytes32"
            },
            {
              "internalType": "string",
              "name": "description",
              "type": "string"
            },
            {
              "internalType": "uint256",
              "name": "price",
              "type": "uint256"
            },
            {
              "internalType": "bool",
              "name": "inStock",
              "type": "bool"
            },
            {
              "internalType": "uint256",
              "name": "stock",
              "type": "uint256"
            }
          ],
          "internalType": "struct Catalog.Product",
          "name": "",
          "type": "tuple"
        }
      ],
      "stateMutability": "view",
      "type": "function"
    },
    {
      "inputs": [],
      "name": "getProductCount",
      "outputs": [
        {
          "internalType": "uint256",
          "name": "",
          "type": "uint256"
        }
      ],
      "stateMutability": "view",
      "type": "function"
    },
    {
      "inputs": [
        {
          "internalType": "bool",
          "name": "filterInStock",
          "type": "bool"
        },
        {
          "internalType": "bool",
          "name": "filterInPromo",
          "type": "bool"
        }
      ],
      "name": "getProducts",
      "outputs": [
        {
          "components": [
            {
              "internalType": "bytes32",
              "name": "code",
              "type": "bytes32"
            },
            {
              "internalType": "string",
              "name": "description",
              "type": "string"
            },
            {
              "internalType": "uint256",
              "name": "price",
              "type": "uint256"
            },
            {
              "internalType": "bool",
              "name": "inStock",
              "type": "bool"
            },
            {
              "internalType": "uint256",
              "name": "stock",
              "type": "uint256"
            }
          ],
          "internalType": "struct Catalog.Product[]",
          "name": "",
          "type": "tuple[]"
        }
      ],
      "stateMutability": "view",
      "type": "function"
    },
    {
      "inputs": [],
      "name": "getProductsWithPrices",
      "outputs": [
        {
          "components": [
            {
              "internalType": "bytes32",
              "name": "code",
              "type": "bytes32"
            },
            {
              "internalType": "string",
              "name": "description",
              "type": "string"
            },
            {
              "internalType": "uint256",
              "name": "price",
              "type": "uint256"
            },
            {
              "internalType": "bool",
              "name": "inStock",
              "type": "bool"
            },
            {
              "internalType": "uint256",
              "name": "stock",
              "type": "uint256"
            }
          ],
          "internalType": "struct Catalog.Product[]",
          "name": "productList",
          "type": "tuple[]"
        }
      ],
      "stateMutability": "view",
      "type": "function"
    },
    {
      "inputs": [
        {
          "internalType": "bytes32",
          "name": "code",
          "type": "bytes32"
        },
        {
          "internalType": "uint256",
          "name": "amount",
          "type": "uint256"
        }
      ],
      "name": "increaseStock",
      "outputs": [],
      "stateMutability": "nonpayable",
      "type": "function"
    },
    {
      "inputs": [
        {
          "internalType": "bytes32",
          "name": "code",
          "type": "bytes32"
        },
        {
          "internalType": "uint256",
          "name": "quantity",
          "type": "uint256"
        }
      ],
      "name": "isAvailable",
      "outputs": [
        {
          "internalType": "bool",
          "name": "",
          "type": "bool"
        }
      ],
      "stateMutability": "view",
      "type": "function"
    },
    {
      "inputs": [
        {
          "internalType": "bytes32",
          "name": "code",
          "type": "bytes32"
        }
      ],
      "name": "isPromoActive",
      "outputs": [
        {
          "internalType": "bool",
          "name": "",
          "type": "bool"
        }
      ],
      "stateMutability": "view",
      "type": "function"
    },
    {
      "inputs": [
        {
          "internalType": "bytes32",
          "name": "",
          "type": "bytes32"
        }
      ],
      "name": "productPromos",
      "outputs": [
        {
          "internalType": "enum Catalog.State",
          "name": "state",
          "type": "uint8"
        },
        {
          "internalType": "uint256",
          "name": "start",
          "type": "uint256"
        },
        {
          "internalType": "uint256",
          "name": "end",
          "type": "uint256"
        },
        {
          "internalType": "uint256",
          "name": "percent",
          "type": "uint256"
        }
      ],
      "stateMutability": "view",
      "type": "function"
    },
    {
      "inputs": [
        {
          "internalType": "uint256",
          "name": "",
          "type": "uint256"
        }
      ],
      "name": "products",
      "outputs": [
        {
          "internalType": "bytes32",
          "name": "code",
          "type": "bytes32"
        },
        {
          "internalType": "string",
          "name": "description",
          "type": "string"
        },
        {
          "internalType": "uint256",
          "name": "price",
          "type": "uint256"
        },
        {
          "internalType": "bool",
          "name": "inStock",
          "type": "bool"
        },
        {
          "internalType": "uint256",
          "name": "stock",
          "type": "uint256"
        }
      ],
      "stateMutability": "view",
      "type": "function"
    },
    {
      "inputs": [
        {
          "internalType": "address",
          "name": "manager",
          "type": "address"
        }
      ],
      "name": "revokeManager",
      "outputs": [],
      "stateMutability": "nonpayable",
      "type": "function"
    },
    {
      "inputs": [
        {
          "internalType": "bytes32",
          "name": "code",
          "type": "bytes32"
        },
        {
          "internalType": "uint256",
          "name": "ndays",
          "type": "uint256"
        },
        {
          "internalType": "uint256",
          "name": "percent",
          "type": "uint256"
        }
      ],
      "name": "startProductPromo",
      "outputs": [],
      "stateMutability": "nonpayable",
      "type": "function"
    },
    {
      "inputs": [
        {
          "internalType": "bytes32[]",
          "name": "codes",
          "type": "bytes32[]"
        },
        {
          "internalType": "uint256",
          "name": "ndays",
          "type": "uint256"
        },
        {
          "internalType": "uint256",
          "name": "percent",
          "type": "uint256"
        }
      ],
      "name": "startPromoBatch",
      "outputs": [],
      "stateMutability": "nonpayable",
      "type": "function"
    },
    {
      "inputs": [
        {
          "internalType": "bytes32",
          "name": "code",
          "type": "bytes32"
        },
        {
          "internalType": "uint256",
          "name": "newPrice",
          "type": "uint256"
        }
      ],
      "name": "updatePrice",
      "outputs": [],
      "stateMutability": "nonpayable",
      "type": "function"
    }
  ],
  "bytecode": "0x6080604052348015600e575f5ffd5b50600380546001600160a01b03191633179055611c268061002e5f395ff3fe608060405234801561000f575f5ffd5b5060043610610127575f3560e01c80635f704f3e116100a9578063964983701161006e5780639649837014610290578063b5642826146102a3578063bfd7cd79146102b6578063e554685e14610301578063f851a44014610314575f5ffd5b80635f704f3e1461022057806361588e9a146102335780636ff4c6d5146102465780637acc0b2014610259578063820e67331461027d575f5ffd5b806332961954116100ef57806332961954146101b2578063377e32e6146101d35780633a20e9df146101e65780634a348da9146102065780635902b42e1461020d575f5ffd5b80630a3cb21b1461012b57806312a68ced1461016257806317a1924614610177578063267c8507146101975780632fd073dc146101aa575b5f5ffd5b61014d6101393660046115c8565b60046020525f908152604090205460ff1681565b60405190151581526020015b60405180910390f35b6101756101703660046115ee565b61033f565b005b61018a610185366004611619565b6103c0565b60405161015991906116c2565b6101756101a53660046115c8565b610660565b61018a6106d5565b6101c56101c03660046115ee565b6108bc565b604051908152602001610159565b6101756101e13660046115c8565b6109a1565b6101f96101f43660046115ee565b610a13565b6040516101599190611725565b5f546101c5565b61014d61021b3660046115ee565b610b3c565b61017561022e366004611737565b610bdc565b610175610241366004611737565b610ca6565b61017561025436600461179c565b610d65565b61026c6102673660046115ee565b610eff565b604051610159959493929190611849565b61017561028b36600461187e565b610fca565b61017561029e36600461193a565b611171565b61014d6102b1366004611737565b61131a565b6102f16102c43660046115ee565b600160208190525f9182526040909120805491810154600282015460039092015460ff9093169290919084565b6040516101599493929190611977565b61017561030f366004611737565b61142d565b600354610327906001600160a01b031681565b6040516001600160a01b039091168152602001610159565b6003546001600160a01b031633146103725760405162461bcd60e51b8152600401610369906119b3565b60405180910390fd5b5f818152600160208190526040808320426002820155805460ff1916909217825551909183917fc5c2574ec133d9dee5f392dc0cfae97f08f88ed4d91a873a829cb2c6a4e765d99190a25050565b60605f805b5f54811015610452578415806103ff57505f81815481106103e8576103e86119f4565b5f91825260209091206003600590920201015460ff165b8015610437575083158061043757506104375f8281548110610423576104236119f4565b905f5260205f2090600502015f0154610b3c565b1561044a578161044681611a1c565b9250505b6001016103c5565b505f8167ffffffffffffffff81111561046d5761046d611757565b6040519080825280602002602001820160405280156104ce57816020015b6104bb6040518060a001604052805f8152602001606081526020015f81526020015f151581526020015f81525090565b81526020019060019003908161048b5790505b5090505f805b5f548110156106535786158061050e57505f81815481106104f7576104f76119f4565b5f91825260209091206003600590920201015460ff165b8015610532575085158061053257506105325f8281548110610423576104236119f4565b1561064b575f8181548110610549576105496119f4565b905f5260205f2090600502016040518060a00160405290815f820154815260200160018201805461057990611a34565b80601f01602080910402602001604051908101604052809291908181526020018280546105a590611a34565b80156105f05780601f106105c7576101008083540402835291602001916105f0565b820191905f5260205f20905b8154815290600101906020018083116105d357829003601f168201915b505050918352505060028201546020820152600382015460ff16151560408201526004909101546060909101528351849084908110610631576106316119f4565b6020026020010181905250818061064790611a1c565b9250505b6001016104d4565b5090925050505b92915050565b6003546001600160a01b0316331461068a5760405162461bcd60e51b8152600401610369906119b3565b6001600160a01b0381165f81815260046020526040808220805460ff19166001179055517f7928c1bf496af53c7b052b3452a910ddebbe58956f6218faff73b8274cae2e0c9190a250565b5f5460609067ffffffffffffffff8111156106f2576106f2611757565b60405190808252806020026020018201604052801561075357816020015b6107406040518060a001604052805f8152602001606081526020015f81526020015f151581526020015f81525090565b8152602001906001900390816107105790505b5090505f5b5f548110156108b8575f8181548110610773576107736119f4565b905f5260205f2090600502016040518060a00160405290815f82015481526020016001820180546107a390611a34565b80601f01602080910402602001604051908101604052809291908181526020018280546107cf90611a34565b801561081a5780601f106107f15761010080835404028352916020019161081a565b820191905f5260205f20905b8154815290600101906020018083116107fd57829003601f168201915b505050918352505060028201546020820152600382015460ff1615156040820152600490910154606090910152825183908390811061085b5761085b6119f4565b602002602001018190525061088f5f828154811061087b5761087b6119f4565b905f5260205f2090600502015f01546108bc565b8282815181106108a1576108a16119f4565b602090810291909101015160400152600101610758565b5090565b5f5f6108c783611527565b90505f5f82815481106108dc576108dc6119f4565b905f5260205f2090600502016002015490506108f784610b3c565b1561099a575f848152600160208190526040808320815160808101909252805491929091839160ff9091169081111561093257610932611963565b600181111561094357610943611963565b8152602001600182015481526020016002820154815260200160038201548152505090505f606482606001518461097a9190611a6c565b6109849190611a83565b90506109908184611aa2565b9695505050505050565b9392505050565b6003546001600160a01b031633146109cb5760405162461bcd60e51b8152600401610369906119b3565b6001600160a01b0381165f81815260046020526040808220805460ff19169055517fe5def11e0516f317f9c37b8835aec29fc01db4d4b6d6fecaca339d3596a29bc19190a250565b610a436040518060a001604052805f8152602001606081526020015f81526020015f151581526020015f81525090565b5f610a4d83611527565b90505f8181548110610a6157610a616119f4565b905f5260205f2090600502016040518060a00160405290815f8201548152602001600182018054610a9190611a34565b80601f0160208091040260200160405190810160405280929190818152602001828054610abd90611a34565b8015610b085780601f10610adf57610100808354040283529160200191610b08565b820191905f5260205f20905b815481529060010190602001808311610aeb57829003601f168201915b505050918352505060028201546020820152600382015460ff16151560408201526004909101546060909101529392505050565b5f81815260016020819052604080832081516080810190925280548493839160ff1690811115610b6e57610b6e611963565b6001811115610b7f57610b7f611963565b8152600182015460208201526002820154604082015260039091015460609091015290505f81516001811115610bb757610bb7611963565b148015610bc8575080602001514210155b801561099a57506040015142111592915050565b6003546001600160a01b03163314610c065760405162461bcd60e51b8152600401610369906119b3565b5f610c1083611527565b90505f5f8281548110610c2557610c256119f4565b905f5260205f209060050201600201549050825f8381548110610c4a57610c4a6119f4565b905f5260205f20906005020160020181905550837fbcd10d64fce9dcf9568572ed92e371df336d32649e8960a045c9548794a44b268285604051610c98929190918252602082015260400190565b60405180910390a250505050565b6003546001600160a01b03163314610cd05760405162461bcd60e51b8152600401610369906119b3565b5f610cda83611527565b90505f5f8281548110610cef57610cef6119f4565b905f5260205f209060050201905082816004015f828254610d109190611ab5565b9091555050600481015415610d2f5760038101805460ff191660011790555b837f1dc600a0de973fe7a0046fa7d61b75642a4f0aea5f07b7b8710f4723d0878f8a8260040154604051610c9891815260200190565b6003546001600160a01b03163314610d8f5760405162461bcd60e51b8152600401610369906119b3565b5f5b5f54811015610de557845f8281548110610dad57610dad6119f4565b905f5260205f2090600502015f015403610ddd57604051633cef866760e01b815260048101869052602401610369565b600101610d91565b506040805160a081018252858152602081018581529181018490528215156060820152608081018390525f8054600181018255908052815160059091027f290decd9548b62a8d60345a988386fc84ba6bc95484008f6362f93160ef3e56381019182559251919290917f290decd9548b62a8d60345a988386fc84ba6bc95484008f6362f93160ef3e56490910190610e7d9082611b14565b5060408201516002820155606082015160038201805460ff19169115159190911790556080909101516004909101555f54610eba90600190611aa2565b5f8581526002602052604090819020919091555184907fe5336ab44414563aebe406d3987ae4051ff6da21fc5134a1bb0bd1ec84a9873190610c989086908690611bcf565b5f8181548110610f0d575f80fd5b5f9182526020909120600590910201805460018201805491935090610f3190611a34565b80601f0160208091040260200160405190810160405280929190818152602001828054610f5d90611a34565b8015610fa85780601f10610f7f57610100808354040283529160200191610fa8565b820191905f5260205f20905b815481529060010190602001808311610f8b57829003601f168201915b50505050600283015460038401546004909401549293909260ff909116915085565b6003546001600160a01b03163314610ff45760405162461bcd60e51b8152600401610369906119b3565b60648111156110415760405162461bcd60e51b8152602060048201526019602482015278050657263656e742063616e6e6f74206578636565642031303603c1b6044820152606401610369565b5f5b835181101561116b57604080516080810182525f815242602082015290810161106d856018611a6c565b61107890603c611a6c565b61108390603c611a6c565b61108d9042611ab5565b81526020018381525060015f8684815181106110ab576110ab6119f4565b60209081029190910181015182528101919091526040015f2081518154829060ff1916600183818111156110e1576110e1611963565b0217905550602082015181600101556040820151816002015560608201518160030155905050838181518110611119576111196119f4565b60200260200101517fe520d5929f89b664ab54dbd253021ea0fff4046d462305488dd85b0f5fe24921838560405161115b929190918252602082015260400190565b60405180910390a2600101611043565b50505050565b6003546001600160a01b0316331461119b5760405162461bcd60e51b8152600401610369906119b3565b60648111156111e85760405162461bcd60e51b8152602060048201526019602482015278050657263656e742063616e6e6f74206578636565642031303603c1b6044820152606401610369565b5f6111f284611527565b5f54909150811061123e5760405162461bcd60e51b8152602060048201526016602482015275141c9bd91d58dd08191bd95cc81b9bdd08195e1a5cdd60521b6044820152606401610369565b604080516080810182525f815242602082015290810161125f856018611a6c565b61126a90603c611a6c565b61127590603c611a6c565b61127f9042611ab5565b815260209081018490525f868152600191829052604090208251815491929091839160ff199091169083818111156112b9576112b9611963565b0217905550602082015181600101556040820151816002015560608201518160030155905050837fe520d5929f89b664ab54dbd253021ea0fff4046d462305488dd85b0f5fe249218385604051610c98929190918252602082015260400190565b5f5f61132584611527565b90505f5f828154811061133a5761133a6119f4565b905f5260205f2090600502016040518060a00160405290815f820154815260200160018201805461136a90611a34565b80601f016020809104026020016040519081016040528092919081815260200182805461139690611a34565b80156113e15780601f106113b8576101008083540402835291602001916113e1565b820191905f5260205f20905b8154815290600101906020018083116113c457829003601f168201915b505050918352505060028201546020820152600382015460ff16151560408201526004909101546060918201528101519091508015611424575083816080015110155b95945050505050565b335f9081526004602052604090205460ff1661145c5760405163d22434fd60e01b815260040160405180910390fd5b5f61146683611527565b90505f5f828154811061147b5761147b6119f4565b905f5260205f209060050201905082816004015410156114c257600480820154604051631500ea1d60e21b8152918201869052602482015260448101849052606401610369565b82816004015f8282546114d59190611aa2565b909155505060048101545f03610d2f5760038101805460ff19169055837f1dc600a0de973fe7a0046fa7d61b75642a4f0aea5f07b7b8710f4723d0878f8a8260040154604051610c9891815260200190565b5f818152600260205260408120548154811015806115655750825f8281548110611553576115536119f4565b905f5260205f2090600502015f015414155b1561065a575f5b5f548110156115ab57835f8281548110611588576115886119f4565b905f5260205f2090600502015f0154036115a3579392505050565b60010161156c565b5060405163b9780c7f60e01b815260048101849052602401610369565b5f602082840312156115d8575f5ffd5b81356001600160a01b038116811461099a575f5ffd5b5f602082840312156115fe575f5ffd5b5035919050565b80358015158114611614575f5ffd5b919050565b5f5f6040838503121561162a575f5ffd5b61163383611605565b915061164160208401611605565b90509250929050565b5f81518084528060208401602086015e5f602082860101526020601f19601f83011685010191505092915050565b805182525f602082015160a0602085015261169660a085018261164a565b905060408301516040850152606083015115156060850152608083015160808501528091505092915050565b5f602082016020835280845180835260408501915060408160051b8601019250602086015f5b8281101561171957603f19878603018452611704858351611678565b945060209384019391909101906001016116e8565b50929695505050505050565b602081525f61099a6020830184611678565b5f5f60408385031215611748575f5ffd5b50508035926020909101359150565b634e487b7160e01b5f52604160045260245ffd5b604051601f8201601f1916810167ffffffffffffffff8111828210171561179457611794611757565b604052919050565b5f5f5f5f608085870312156117af575f5ffd5b84359350602085013567ffffffffffffffff8111156117cc575f5ffd5b8501601f810187136117dc575f5ffd5b803567ffffffffffffffff8111156117f6576117f6611757565b611809601f8201601f191660200161176b565b81815288602083850101111561181d575f5ffd5b816020840160208301375f91810160200191909152949794965050505060408301359260600135919050565b85815260a060208201525f61186160a083018761164a565b604083019590955250911515606083015260809091015292915050565b5f5f5f60608486031215611890575f5ffd5b833567ffffffffffffffff8111156118a6575f5ffd5b8401601f810186136118b6575f5ffd5b803567ffffffffffffffff8111156118d0576118d0611757565b8060051b6118e06020820161176b565b918252602081840181019290810190898411156118fb575f5ffd5b6020850194505b8385101561192157843580835260209586019590935090910190611902565b9960208901359950604090980135979650505050505050565b5f5f5f6060848603121561194c575f5ffd5b505081359360208301359350604090920135919050565b634e487b7160e01b5f52602160045260245ffd5b608081016002861061199757634e487b7160e01b5f52602160045260245ffd5b9481526020810193909352604083019190915260609091015290565b60208082526021908201527f4f6e6c792061646d696e2063616e2063616c6c20746869732066756e6374696f6040820152603760f91b606082015260800190565b634e487b7160e01b5f52603260045260245ffd5b634e487b7160e01b5f52601160045260245ffd5b5f60018201611a2d57611a2d611a08565b5060010190565b600181811c90821680611a4857607f821691505b602082108103611a6657634e487b7160e01b5f52602260045260245ffd5b50919050565b808202811582820484141761065a5761065a611a08565b5f82611a9d57634e487b7160e01b5f52601260045260245ffd5b500490565b8181038181111561065a5761065a611a08565b8082018082111561065a5761065a611a08565b601f821115611b0f57805f5260205f20601f840160051c81016020851015611aed5750805b601f840160051c820191505b81811015611b0c575f8155600101611af9565b50505b505050565b815167ffffffffffffffff811115611b2e57611b2e611757565b611b4281611b3c8454611a34565b84611ac8565b6020601f821160018114611b74575f8315611b5d5750848201515b5f19600385901b1c1916600184901b178455611b0c565b5f84815260208120601f198516915b82811015611ba35787850151825560209485019460019092019101611b83565b5084821015611bc057868401515f19600387901b60f8161c191681555b50505050600190811b01905550565b604081525f611be1604083018561164a565b9050826020830152939250505056fea26469706673582212203e22444968fee846183d378d97129df65b13af5ddb3d375fc58335c37a4ab39064736f6c634300081c0033",
  "linkReferences": {},
  "deployedLinkReferences": {},
  "immutableReferences": {},
  "inputSourceName": "project/contracts/Catalog.sol",
  "buildInfoId": "solc-0_8_28-e204fb4d471991390b76ae785e6e7b85e7ff9065"
}