{
  "_format": "hh3-artifact-1",
  "contractName": "FidelityPoints",
  "sourceName": "contracts/FidelityPoints.sol",
  "abi": [
    {
      "inputs": [
        {
          "internalType": "uint256",
          "name": "_pointValue",
          "type": "uint256"
        }
      ],
      "stateMutability": "nonpayable",
      "type": "constructor"
    },
    {
      "inputs": [
        {
          "internalType": "address",
          "name": "client",
          "type": "address"
        },
        {
          "internalType": "uint256",
          "name": "_points",
          "type": "uint256"
        }
      ],
      "name": "addPoints",
      "outputs": [],
      "stateMutability": "nonpayable",
      "type": "function"
    },
    {
      "inputs": [],
      "name": "admin",
      "outputs": [
        {
          "internalType": "address",
          "name": "",
          "type": "address"
        }
      ],
      "stateMutability": "view",
      "type": "function"
    },
    {
      "inputs": [],
      "name": "getTotalPoints",
      "outputs": [
        {
          "internalType": "uint256",
          "name": "",
          "type": "uint256"
        }
      ],
      "stateMutability": "view",
      "type": "function"
    },
    {
      "inputs": [
        {
          "internalType": "address",
          "name": "client",
          "type": "address"
        }
      ],
      "name": "getTotalValue",
      "outputs": [
        {
          "internalType": "uint256",
          "name": "totalValue",
          "type": "uint256"
        }
      ],
      "stateMutability": "view",
      "type": "function"
    },
    {
      "inputs": [],
      "name": "pointValue",
      "outputs": [
        {
          "internalType": "uint256",
          "name": "",
          "type": "uint256"
        }
      ],
      "stateMutability": "view",
      "type": "function"
    },
    {
      "inputs": [
        {
          "internalType": "address",
          "name": "",
          "type": "address"
        }
      ],
      "name": "points",
      "outputs": [
        {
          "internalType": "uint256",
          "name": "",
          "type": "uint256"
        }
      ],
      "stateMutability": "view",
      "type": "function"
    },
    {
      "inputs": [
        {
          "internalType": "uint256",
          "name": "_pointValue",
          "type": "uint256"
        }
      ],
      "name": "setPointValue",
      "outputs": [],
      "stateMutability": "nonpayable",
      "type": "function"
    },
    {
      "inputs": [
        {
          "internalType": "uint256",
          "name": "_points",
          "type": "uint256"
        }
      ],
      "name": "spendPoints",
      "outputs": [],
      "stateMutability": "nonpayable",
      "type": "function"
    }
  ],
  "bytecode": "0x6080604052348015600e575f5ffd5b506040516103a43803806103a4833981016040819052602b916043565b5f80546001600160a01b031916331790556001556059565b5f602082840312156052575f5ffd5b5051919050565b61033e806100665f395ff3fe608060405234801561000f575f5ffd5b5060043610610085575f3560e01c8063686375491161005857806368637549146100e75780639f6c6bf5146100fa578063d46e0b0914610103578063f851a44014610116575f5ffd5b80631439391d14610089578063326bfcc11461009e578063358b8166146100b5578063507cd30f146100d4575b5f5ffd5b61009c610097366004610223565b600155565b005b6002545b6040519081526020015b60405180910390f35b6100a26100c3366004610255565b60036020525f908152604090205481565b61009c6100e2366004610275565b610140565b6100a26100f5366004610255565b61017a565b6100a260015481565b61009c610111366004610223565b6101a6565b5f54610128906001600160a01b031681565b6040516001600160a01b0390911681526020016100ac565b6001600160a01b0382165f90815260036020526040812080548392906101679084906102b1565b909155506101769050816101de565b5050565b6001546001600160a01b0382165f9081526003602052604081205490916101a0916102c4565b92915050565b335f90815260036020526040812080548392906101c49084906102db565b909155506101db90506101d6826102ee565b6101de565b50565b5f811315610202578060025f8282546101f791906102b1565b909155506101db9050565b61020b816102ee565b60025f82825461021b91906102db565b909155505050565b5f60208284031215610233575f5ffd5b5035919050565b80356001600160a01b0381168114610250575f5ffd5b919050565b5f60208284031215610265575f5ffd5b61026e8261023a565b9392505050565b5f5f60408385031215610286575f5ffd5b61028f8361023a565b946020939093013593505050565b634e487b7160e01b5f52601160045260245ffd5b808201808211156101a0576101a061029d565b80820281158282048414176101a0576101a061029d565b818103818111156101a0576101a061029d565b5f600160ff1b82016103025761030261029d565b505f039056fea264697066735822122012021cd20dd5e8192467ba63de674089b97dc6b9fe716e29839f31963cbc53ee64736f6c634300081c0033",
  "linkReferences": {},
  "deployedLinkReferences": {},
  "immutableReferences": {},
  "inputSourceName": "project/contracts/FidelityPoints.sol",
  "buildInfoId": "solc-0_8_28-6bee05cd6dc5e531f70a4aaf536b0d7e665ed490"
}