{
  "_format": "hh3-artifact-1",
  "contractName": "Voting",
  "sourceName": "contracts/Voting.sol",
  "abi": [
    {
      "inputs": [
        {
          "internalType": "uint256",
          "name": "regdays",
          "type": "uint256"
        },
        {
          "internalType": "uint256",
          "name": "votedays",
          "type": "uint256"
        },
        {
          "internalType": "uint256",
          "name": "_maxvotes",
          "type": "uint256"
        }
      ],
      "stateMutability": "nonpayable",
      "type": "constructor"
    },
    {
      "anonymous": false,
      "inputs": [
        {
          "indexed": true,
          "internalType": "address",
          "name": "proposer",
          "type": "address"
        },
        {
          "indexed": true,
          "internalType": "string",
          "name": "participant1",
          "type": "string"
        },
        {
          "indexed": true,
          "internalType": "string",
          "name": "participant2",
          "type": "string"
        },
        {
          "indexed": false,
          "internalType": "string",
          "name": "teamName",
          "type": "string"
        },
        {
          "indexed": false,
          "internalType": "string",
          "name": "gitAddress",
          "type": "string"
        },
        {
          "indexed": false,
          "internalType": "uint256",
          "name": "proposalIdx",
          "type": "uint256"
        }
      ],
      "name": "ProposalAdded",
      "type": "event"
    },
    {
      "anonymous": false,
      "inputs": [
        {
          "indexed": true,
          "internalType": "uint256",
          "name": "proposalIndex",
          "type": "uint256"
        },
        {
          "indexed": false,
          "internalType": "enum Voting.State",
          "name": "oldState",
          "type": "uint8"
        },
        {
          "indexed": false,
          "internalType": "enum Voting.State",
          "name": "newState",
          "type": "uint8"
        }
      ],
      "name": "ProposalStateChanged",
      "type": "event"
    },
    {
      "anonymous": false,
      "inputs": [
        {
          "indexed": true,
          "internalType": "address",
          "name": "voter",
          "type": "address"
        },
        {
          "indexed": true,
          "internalType": "uint256",
          "name": "proposalIndex",
          "type": "uint256"
        }
      ],
      "name": "VoteCast",
      "type": "event"
    },
    {
      "inputs": [],
      "name": "admin",
      "outputs": [
        {
          "internalType": "address",
          "name": "",
          "type": "address"
        }
      ],
      "stateMutability": "view",
      "type": "function"
    },
    {
      "inputs": [
        {
          "internalType": "bytes",
          "name": "sig",
          "type": "bytes"
        },
        {
          "internalType": "bytes32",
          "name": "text",
          "type": "bytes32"
        },
        {
          "internalType": "address",
          "name": "sender",
          "type": "address"
        }
      ],
      "name": "checkSignature",
      "outputs": [
        {
          "internalType": "bool",
          "name": "rez",
          "type": "bool"
        }
      ],
      "stateMutability": "pure",
      "type": "function"
    },
    {
      "inputs": [
        {
          "internalType": "uint256",
          "name": "ndays",
          "type": "uint256"
        }
      ],
      "name": "extendRegisterDates",
      "outputs": [],
      "stateMutability": "nonpayable",
      "type": "function"
    },
    {
      "inputs": [
        {
          "internalType": "uint256",
          "name": "ndays",
          "type": "uint256"
        }
      ],
      "name": "extendVotingDates",
      "outputs": [],
      "stateMutability": "nonpayable",
      "type": "function"
    },
    {
      "inputs": [],
      "name": "getActiveProposals",
      "outputs": [
        {
          "components": [
            {
              "internalType": "bytes32",
              "name": "projectName",
              "type": "bytes32"
            },
            {
              "internalType": "string",
              "name": "teamName",
              "type": "string"
            },
            {
              "internalType": "string",
              "name": "gitAddress",
              "type": "string"
            },
            {
              "internalType": "uint256",
              "name": "voteCount",
              "type": "uint256"
            },
            {
              "internalType": "enum Voting.State",
              "name": "state",
              "type": "uint8"
            }
          ],
          "internalType": "struct Voting.Proposal[]",
          "name": "activeProposals",
          "type": "tuple[]"
        },
        {
          "internalType": "uint256[]",
          "name": "indices",
          "type": "uint256[]"
        }
      ],
      "stateMutability": "view",
      "type": "function"
    },
    {
      "inputs": [],
      "name": "getAllProposals",
      "outputs": [
        {
          "components": [
            {
              "internalType": "bytes32",
              "name": "projectName",
              "type": "bytes32"
            },
            {
              "internalType": "string",
              "name": "teamName",
              "type": "string"
            },
            {
              "internalType": "string",
              "name": "gitAddress",
              "type": "string"
            },
            {
              "internalType": "uint256",
              "name": "voteCount",
              "type": "uint256"
            },
            {
              "internalType": "enum Voting.State",
              "name": "state",
              "type": "uint8"
            }
          ],
          "internalType": "struct Voting.Proposal[]",
          "name": "",
          "type": "tuple[]"
        }
      ],
      "stateMutability": "view",
      "type": "function"
    },
    {
      "inputs": [],
      "name": "getContractParams",
      "outputs": [
        {
          "internalType": "uint256",
          "name": "",
          "type": "uint256"
        },
        {
          "internalType": "uint256",
          "name": "",
          "type": "uint256"
        }
      ],
      "stateMutability": "view",
      "type": "function"
    },
    {
      "inputs": [],
      "name": "getMaxVotes",
      "outputs": [
        {
          "internalType": "uint256",
          "name": "",
          "type": "uint256"
        }
      ],
      "stateMutability": "view",
      "type": "function"
    },
    {
      "inputs": [],
      "name": "getNumberOfProposals",
      "outputs": [
        {
          "internalType": "uint256",
          "name": "",
          "type": "uint256"
        }
      ],
      "stateMutability": "view",
      "type": "function"
    },
    {
      "inputs": [
        {
          "internalType": "uint256",
          "name": "idx",
          "type": "uint256"
        }
      ],
      "name": "getProposal",
      "outputs": [
        {
          "internalType": "bytes32",
          "name": "projectName",
          "type": "bytes32"
        },
        {
          "internalType": "string",
          "name": "teamName",
          "type": "string"
        },
        {
          "internalType": "string",
          "name": "gitAddress",
          "type": "string"
        },
        {
          "internalType": "uint256",
          "name": "voteCount",
          "type": "uint256"
        },
        {
          "internalType": "enum Voting.State",
          "name": "state",
          "type": "uint8"
        }
      ],
      "stateMutability": "view",
      "type": "function"
    },
    {
      "inputs": [
        {
          "internalType": "uint256",
          "name": "",
          "type": "uint256"
        }
      ],
      "name": "proposals",
      "outputs": [
        {
          "internalType": "bytes32",
          "name": "projectName",
          "type": "bytes32"
        },
        {
          "internalType": "string",
          "name": "teamName",
          "type": "string"
        },
        {
          "internalType": "string",
          "name": "gitAddress",
          "type": "string"
        },
        {
          "internalType": "uint256",
          "name": "voteCount",
          "type": "uint256"
        },
        {
          "internalType": "enum Voting.State",
          "name": "state",
          "type": "uint8"
        }
      ],
      "stateMutability": "view",
      "type": "function"
    },
    {
      "inputs": [
        {
          "internalType": "bytes32",
          "name": "projectName",
          "type": "bytes32"
        },
        {
          "internalType": "string",
          "name": "teamName",
          "type": "string"
        },
        {
          "internalType": "string",
          "name": "gitAddress",
          "type": "string"
        },
        {
          "internalType": "string",
          "name": "participant1",
          "type": "string"
        },
        {
          "internalType": "string",
          "name": "participant2",
          "type": "string"
        }
      ],
      "name": "registerProposal",
      "outputs": [],
      "stateMutability": "nonpayable",
      "type": "function"
    },
    {
      "inputs": [
        {
          "internalType": "bytes32",
          "name": "registerToken",
          "type": "bytes32"
        }
      ],
      "name": "registerVoter",
      "outputs": [
        {
          "internalType": "bytes32",
          "name": "votingToken",
          "type": "bytes32"
        }
      ],
      "stateMutability": "nonpayable",
      "type": "function"
    },
    {
      "inputs": [
        {
          "internalType": "uint256",
          "name": "idx",
          "type": "uint256"
        },
        {
          "internalType": "enum Voting.State",
          "name": "newState",
          "type": "uint8"
        }
      ],
      "name": "setProposalState",
      "outputs": [],
      "stateMutability": "nonpayable",
      "type": "function"
    },
    {
      "inputs": [
        {
          "internalType": "bytes",
          "name": "sig",
          "type": "bytes"
        }
      ],
      "name": "sigRSV",
      "outputs": [
        {
          "internalType": "bytes32",
          "name": "r",
          "type": "bytes32"
        },
        {
          "internalType": "bytes32",
          "name": "s",
          "type": "bytes32"
        },
        {
          "internalType": "uint8",
          "name": "v",
          "type": "uint8"
        }
      ],
      "stateMutability": "pure",
      "type": "function"
    },
    {
      "inputs": [
        {
          "internalType": "uint256",
          "name": "limit",
          "type": "uint256"
        }
      ],
      "name": "topProposals",
      "outputs": [
        {
          "internalType": "uint256[]",
          "name": "winningProposalId",
          "type": "uint256[]"
        }
      ],
      "stateMutability": "view",
      "type": "function"
    },
    {
      "inputs": [
        {
          "internalType": "uint256[]",
          "name": "votes",
          "type": "uint256[]"
        }
      ],
      "name": "vote",
      "outputs": [],
      "stateMutability": "nonpayable",
      "type": "function"
    },
    {
      "inputs": [
        {
          "internalType": "address",
          "name": "",
          "type": "address"
        }
      ],
      "name": "voters",
      "outputs": [
        {
          "internalType": "bool",
          "name": "voted",
          "type": "bool"
        },
        {
          "internalType": "bytes32",
          "name": "token",
          "type": "bytes32"
        }
      ],
      "stateMutability": "view",
      "type": "function"
    }
  ],
  "bytecode": "0x608060405234801561000f575f5ffd5b5060405161347d38038061347d8339818101604052810190610031919061012b565b335f5f6101000a81548173ffffffffffffffffffffffffffffffffffffffff021916908373ffffffffffffffffffffffffffffffffffffffff160217905550603c8060188561008091906101a8565b61008a91906101a8565b61009491906101a8565b4261009f91906101e9565b600181905550603c80601885856100b691906101e9565b6100c091906101a8565b6100ca91906101a8565b6100d491906101a8565b426100df91906101e9565b6002819055508060048190555050505061021c565b5f5ffd5b5f819050919050565b61010a816100f8565b8114610114575f5ffd5b50565b5f8151905061012581610101565b92915050565b5f5f5f60608486031215610142576101416100f4565b5b5f61014f86828701610117565b935050602061016086828701610117565b925050604061017186828701610117565b9150509250925092565b7f4e487b71000000000000000000000000000000000000000000000000000000005f52601160045260245ffd5b5f6101b2826100f8565b91506101bd836100f8565b92508282026101cb816100f8565b915082820484148315176101e2576101e161017b565b5b5092915050565b5f6101f3826100f8565b91506101fe836100f8565b92508282019050808211156102165761021561017b565b5b92915050565b613254806102295f395ff3fe608060405234801561000f575f5ffd5b5060043610610114575f3560e01c8063afde521b116100a0578063ce11f2bb1161006f578063ce11f2bb14610322578063e069074b1461033e578063e7ec0a461461035d578063f851a44014610379578063f8b131611461039757610114565b8063afde521b14610284578063bbd3b707146102b4578063c7f758a8146102d0578063cceb68f51461030457610114565b80635584c4f9116100e75780635584c4f9146101b657806377e3d714146101d5578063793c5d21146101f15780639d24ce3f14610221578063a3ec138d1461025357610114565b8063013cf08b146101185780630fb266971461014c5780631159380b1461016857806333809b6c14610198575b5f5ffd5b610132600480360381019061012d9190611d15565b6103b5565b604051610143959493929190611e4a565b60405180910390f35b61016660048036038101906101619190611ecc565b61050e565b005b610182600480360381019061017d91906120ba565b61069f565b60405161018f9190612140565b60405180910390f35b6101a0610763565b6040516101ad9190612159565b60405180910390f35b6101be61076f565b6040516101cc9291906123c4565b60405180910390f35b6101ef60048036038101906101ea9190611d15565b610b09565b005b61020b600480360381019061020691906123f9565b610be9565b6040516102189190612424565b60405180910390f35b61023b6004803603810190610236919061243d565b610cff565b60405161024a9392919061249f565b60405180910390f35b61026d600480360381019061026891906124d4565b610d64565b60405161027b9291906124ff565b60405180910390f35b61029e60048036038101906102999190611d15565b610d90565b6040516102ab9190612526565b60405180910390f35b6102ce60048036038101906102c991906125e4565b611175565b005b6102ea60048036038101906102e59190611d15565b6113c0565b6040516102fb959493929190611e4a565b60405180910390f35b61030c6115d4565b60405161031991906126cb565b60405180910390f35b61033c600480360381019061033791906127af565b61179d565b005b610346611b3b565b6040516103549291906127f6565b60405180910390f35b61037760048036038101906103729190611d15565b611b4b565b005b610381611c66565b60405161038e919061282c565b60405180910390f35b61039f611c8a565b6040516103ac9190612159565b60405180910390f35b600781815481106103c4575f80fd5b905f5260205f2090600502015f91509050805f0154908060010180546103e990612872565b80601f016020809104026020016040519081016040528092919081815260200182805461041590612872565b80156104605780601f1061043757610100808354040283529160200191610460565b820191905f5260205f20905b81548152906001019060200180831161044357829003601f168201915b50505050509080600201805461047590612872565b80601f01602080910402602001604051908101604052809291908181526020018280546104a190612872565b80156104ec5780601f106104c3576101008083540402835291602001916104ec565b820191905f5260205f20905b8154815290600101906020018083116104cf57829003601f168201915b505050505090806003015490806004015f9054906101000a900460ff16905085565b5f5f9054906101000a900473ffffffffffffffffffffffffffffffffffffffff1673ffffffffffffffffffffffffffffffffffffffff163373ffffffffffffffffffffffffffffffffffffffff161461059c576040517f08c379a0000000000000000000000000000000000000000000000000000000008152600401610593906128ec565b60405180910390fd5b60078054905082106105e3576040517f08c379a00000000000000000000000000000000000000000000000000000000081526004016105da90612954565b60405180910390fd5b5f600783815481106105f8576105f7612972565b5b905f5260205f2090600502016004015f9054906101000a900460ff169050816007848154811061062b5761062a612972565b5b905f5260205f2090600502016004015f6101000a81548160ff0219169083600281111561065b5761065a611dd7565b5b0217905550827f6147c657c509b611c5b884671c7cb0da0e1eed364b561e0e9d48789b79421525828460405161069292919061299f565b60405180910390a2505050565b5f5f5f5f6106ac87610cff565b9250925092505f866040516020016106c49190612a3a565b6040516020818303038152906040528051906020012090508573ffffffffffffffffffffffffffffffffffffffff166001828487876040515f81526020016040526040516107159493929190612a5f565b6020604051602081039080840390855afa158015610735573d5f5f3e3d5ffd5b5050506020604051035173ffffffffffffffffffffffffffffffffffffffff16149450505050509392505050565b5f600780549050905090565b6060805f5f90505f5f90505b6007805490508110156107fe575f600281111561079b5761079a611dd7565b5b600782815481106107af576107ae612972565b5b905f5260205f2090600502016004015f9054906101000a900460ff1660028111156107dd576107dc611dd7565b5b036107f15781806107ed90612acf565b9250505b808060010191505061077b565b508067ffffffffffffffff81111561081957610818611f12565b5b60405190808252806020026020018201604052801561085257816020015b61083f611c93565b8152602001906001900390816108375790505b5092508067ffffffffffffffff81111561086f5761086e611f12565b5b60405190808252806020026020018201604052801561089d5781602001602082028036833780820191505090505b5091505f5f90505f5f90505b600780549050811015610b02575f60028111156108c9576108c8611dd7565b5b600782815481106108dd576108dc612972565b5b905f5260205f2090600502016004015f9054906101000a900460ff16600281111561090b5761090a611dd7565b5b03610af5576007818154811061092457610923612972565b5b905f5260205f2090600502016040518060a00160405290815f820154815260200160018201805461095490612872565b80601f016020809104026020016040519081016040528092919081815260200182805461098090612872565b80156109cb5780601f106109a2576101008083540402835291602001916109cb565b820191905f5260205f20905b8154815290600101906020018083116109ae57829003601f168201915b505050505081526020016002820180546109e490612872565b80601f0160208091040260200160405190810160405280929190818152602001828054610a1090612872565b8015610a5b5780601f10610a3257610100808354040283529160200191610a5b565b820191905f5260205f20905b815481529060010190602001808311610a3e57829003601f168201915b5050505050815260200160038201548152602001600482015f9054906101000a900460ff166002811115610a9257610a91611dd7565b5b6002811115610aa457610aa3611dd7565b5b81525050858381518110610abb57610aba612972565b5b602002602001018190525080848381518110610ada57610ad9612972565b5b6020026020010181815250508180610af190612acf565b9250505b80806001019150506108a9565b5050509091565b5f5f9054906101000a900473ffffffffffffffffffffffffffffffffffffffff1673ffffffffffffffffffffffffffffffffffffffff163373ffffffffffffffffffffffffffffffffffffffff1614610b97576040517f08c379a0000000000000000000000000000000000000000000000000000000008152600401610b8e906128ec565b60405180910390fd5b603c80601883610ba79190612b16565b610bb19190612b16565b610bbb9190612b16565b60025f828254610bcb9190612b57565b9250508190555060015460025411610be657610be5612b8a565b5b50565b5f5f6003548342604051602001610c0293929190612bd7565b6040516020818303038152906040528051906020012090508060055f3373ffffffffffffffffffffffffffffffffffffffff1673ffffffffffffffffffffffffffffffffffffffff1681526020019081526020015f20600101819055505f60055f3373ffffffffffffffffffffffffffffffffffffffff1673ffffffffffffffffffffffffffffffffffffffff1681526020019081526020015f205f015f6101000a81548160ff0219169083151502179055508033604051602001610cc8929190612c58565b604051602081830303815290604052805190602001209150600160035f828254610cf29190612b57565b9250508190555050919050565b5f5f5f6041845114610d46576040517f08c379a0000000000000000000000000000000000000000000000000000000008152600401610d3d90612ccd565b60405180910390fd5b602084015192506040840151915060608401515f1a90509193909250565b6005602052805f5260405f205f91509050805f015f9054906101000a900460ff16908060010154905082565b60605f82118015610da657506007805490508211155b610de5576040517f08c379a0000000000000000000000000000000000000000000000000000000008152600401610ddc90612d35565b60405180910390fd5b5f60078054905067ffffffffffffffff811115610e0557610e04611f12565b5b604051908082528060200260200182016040528015610e335781602001602082028036833780820191505090505b5090505f60078054905067ffffffffffffffff811115610e5657610e55611f12565b5b604051908082528060200260200182016040528015610e845781602001602082028036833780820191505090505b5090505f5f90505b600780549050811015610f095780838281518110610ead57610eac612972565b5b60200260200101818152505060078181548110610ecd57610ecc612972565b5b905f5260205f20906005020160030154828281518110610ef057610eef612972565b5b6020026020010181815250508080600101915050610e8c565b505f5f90505b6001600780549050610f219190612d53565b8110156110cd575f5f90505b600182600780549050610f409190612d53565b610f4a9190612d53565b8110156110bf5782600182610f5f9190612b57565b81518110610f7057610f6f612972565b5b6020026020010151838281518110610f8b57610f8a612972565b5b602002602001015110156110b25782600182610fa79190612b57565b81518110610fb857610fb7612972565b5b6020026020010151838281518110610fd357610fd2612972565b5b6020026020010151848381518110610fee57610fed612972565b5b60200260200101856001856110039190612b57565b8151811061101457611013612972565b5b6020026020010182815250828152505050836001826110339190612b57565b8151811061104457611043612972565b5b602002602001015184828151811061105f5761105e612972565b5b602002602001015185838151811061107a57611079612972565b5b602002602001018660018561108f9190612b57565b815181106110a05761109f612972565b5b60200260200101828152508281525050505b8080600101915050610f2d565b508080600101915050610f0f565b508367ffffffffffffffff8111156110e8576110e7611f12565b5b6040519080825280602002602001820160405280156111165781602001602082028036833780820191505090505b5092505f5f90505b8481101561116d5782818151811061113957611138612972565b5b602002602001015184828151811061115457611153612972565b5b602002602001018181525050808060010191505061111e565b505050919050565b5f151560065f3373ffffffffffffffffffffffffffffffffffffffff1673ffffffffffffffffffffffffffffffffffffffff1681526020019081526020015f205f9054906101000a900460ff16151514611204576040517f08c379a00000000000000000000000000000000000000000000000000000000081526004016111fb90612dd0565b60405180910390fd5b60076040518060a001604052808781526020018681526020018581526020015f81526020016001600281111561123d5761123c611dd7565b5b815250908060018154018082558091505060019003905f5260205f2090600502015f909190919091505f820151815f015560208201518160010190816112839190612f8e565b5060408201518160020190816112999190612f8e565b50606082015181600301556080820151816004015f6101000a81548160ff021916908360028111156112ce576112cd611dd7565b5b02179055505050600160065f3373ffffffffffffffffffffffffffffffffffffffff1673ffffffffffffffffffffffffffffffffffffffff1681526020019081526020015f205f6101000a81548160ff02191690831515021790555080604051611338919061308d565b60405180910390208260405161134e919061308d565b60405180910390203373ffffffffffffffffffffffffffffffffffffffff167fa6b69b50d7edeb14bb6abba5ea308a8caef5593ddcb1d74cc201249cb27aa0d7878760016007805490506113a29190612d53565b6040516113b1939291906130a3565b60405180910390a45050505050565b5f6060805f5f600780549050861061140d576040517f08c379a000000000000000000000000000000000000000000000000000000000815260040161140490612954565b60405180910390fd5b5f6007878154811061142257611421612972565b5b905f5260205f2090600502016040518060a00160405290815f820154815260200160018201805461145290612872565b80601f016020809104026020016040519081016040528092919081815260200182805461147e90612872565b80156114c95780601f106114a0576101008083540402835291602001916114c9565b820191905f5260205f20905b8154815290600101906020018083116114ac57829003601f168201915b505050505081526020016002820180546114e290612872565b80601f016020809104026020016040519081016040528092919081815260200182805461150e90612872565b80156115595780601f1061153057610100808354040283529160200191611559565b820191905f5260205f20905b81548152906001019060200180831161153c57829003601f168201915b5050505050815260200160038201548152602001600482015f9054906101000a900460ff1660028111156115905761158f611dd7565b5b60028111156115a2576115a1611dd7565b5b815250509050805f01518160200151826040015183606001518460800151955095509550955095505091939590929450565b60606007805480602002602001604051908101604052809291908181526020015f905b82821015611794578382905f5260205f2090600502016040518060a00160405290815f820154815260200160018201805461163190612872565b80601f016020809104026020016040519081016040528092919081815260200182805461165d90612872565b80156116a85780601f1061167f576101008083540402835291602001916116a8565b820191905f5260205f20905b81548152906001019060200180831161168b57829003601f168201915b505050505081526020016002820180546116c190612872565b80601f01602080910402602001604051908101604052809291908181526020018280546116ed90612872565b80156117385780601f1061170f57610100808354040283529160200191611738565b820191905f5260205f20905b81548152906001019060200180831161171b57829003601f168201915b5050505050815260200160038201548152602001600482015f9054906101000a900460ff16600281111561176f5761176e611dd7565b5b600281111561178157611780611dd7565b5b81525050815260200190600101906115f7565b50505050905090565b600454815111156117e3576040517f08c379a00000000000000000000000000000000000000000000000000000000081526004016117da90613130565b60405180910390fd5b5f151560055f3373ffffffffffffffffffffffffffffffffffffffff1673ffffffffffffffffffffffffffffffffffffffff1681526020019081526020015f205f015f9054906101000a900460ff16151514611874576040517f08c379a000000000000000000000000000000000000000000000000000000000815260040161186b90613198565b60405180910390fd5b5f60055f3373ffffffffffffffffffffffffffffffffffffffff1673ffffffffffffffffffffffffffffffffffffffff1681526020019081526020015f206001015490505f81336040516020016118cc929190612c58565b6040516020818303038152906040528051906020012090505f5f90505b8351811015611ade575f600281111561190557611904611dd7565b5b600785838151811061191a57611919612972565b5b60200260200101518154811061193357611932612972565b5b905f5260205f2090600502016004015f9054906101000a900460ff16600281111561196157611960611dd7565b5b146119a1576040517f08c379a000000000000000000000000000000000000000000000000000000000815260040161199890613200565b60405180910390fd5b600160078583815181106119b8576119b7612972565b5b6020026020010151815481106119d1576119d0612972565b5b905f5260205f2090600502016003015f8282546119ee9190612b57565b9250508190555060055f3373ffffffffffffffffffffffffffffffffffffffff1673ffffffffffffffffffffffffffffffffffffffff1681526020019081526020015f20600201848281518110611a4857611a47612972565b5b6020026020010151908060018154018082558091505060019003905f5260205f20015f9091909190915055838181518110611a8657611a85612972565b5b60200260200101513373ffffffffffffffffffffffffffffffffffffffff167fa36cc2bebb74db33e9f88110a07ef56e1b31b24b4c4f51b54b1664266e29f45b60405160405180910390a380806001019150506118e9565b50600160055f3373ffffffffffffffffffffffffffffffffffffffff1673ffffffffffffffffffffffffffffffffffffffff1681526020019081526020015f205f015f6101000a81548160ff021916908315150217905550505050565b5f5f600454600254915091509091565b5f5f9054906101000a900473ffffffffffffffffffffffffffffffffffffffff1673ffffffffffffffffffffffffffffffffffffffff163373ffffffffffffffffffffffffffffffffffffffff1614611bd9576040517f08c379a0000000000000000000000000000000000000000000000000000000008152600401611bd0906128ec565b60405180910390fd5b603c80601883611be99190612b16565b611bf39190612b16565b611bfd9190612b16565b60015f828254611c0d9190612b57565b92505081905550603c80601883611c249190612b16565b611c2e9190612b16565b611c389190612b16565b60025f828254611c489190612b57565b9250508190555060015460025411611c6357611c62612b8a565b5b50565b5f5f9054906101000a900473ffffffffffffffffffffffffffffffffffffffff1681565b5f600454905090565b6040518060a001604052805f815260200160608152602001606081526020015f81526020015f6002811115611ccb57611cca611dd7565b5b81525090565b5f604051905090565b5f5ffd5b5f5ffd5b5f819050919050565b611cf481611ce2565b8114611cfe575f5ffd5b50565b5f81359050611d0f81611ceb565b92915050565b5f60208284031215611d2a57611d29611cda565b5b5f611d3784828501611d01565b91505092915050565b5f819050919050565b611d5281611d40565b82525050565b5f81519050919050565b5f82825260208201905092915050565b8281835e5f83830152505050565b5f601f19601f8301169050919050565b5f611d9a82611d58565b611da48185611d62565b9350611db4818560208601611d72565b611dbd81611d80565b840191505092915050565b611dd181611ce2565b82525050565b7f4e487b71000000000000000000000000000000000000000000000000000000005f52602160045260245ffd5b60038110611e1557611e14611dd7565b5b50565b5f819050611e2582611e04565b919050565b5f611e3482611e18565b9050919050565b611e4481611e2a565b82525050565b5f60a082019050611e5d5f830188611d49565b8181036020830152611e6f8187611d90565b90508181036040830152611e838186611d90565b9050611e926060830185611dc8565b611e9f6080830184611e3b565b9695505050505050565b60038110611eb5575f5ffd5b50565b5f81359050611ec681611ea9565b92915050565b5f5f60408385031215611ee257611ee1611cda565b5b5f611eef85828601611d01565b9250506020611f0085828601611eb8565b9150509250929050565b5f5ffd5b5f5ffd5b7f4e487b71000000000000000000000000000000000000000000000000000000005f52604160045260245ffd5b611f4882611d80565b810181811067ffffffffffffffff82111715611f6757611f66611f12565b5b80604052505050565b5f611f79611cd1565b9050611f858282611f3f565b919050565b5f67ffffffffffffffff821115611fa457611fa3611f12565b5b611fad82611d80565b9050602081019050919050565b828183375f83830152505050565b5f611fda611fd584611f8a565b611f70565b905082815260208101848484011115611ff657611ff5611f0e565b5b612001848285611fba565b509392505050565b5f82601f83011261201d5761201c611f0a565b5b813561202d848260208601611fc8565b91505092915050565b61203f81611d40565b8114612049575f5ffd5b50565b5f8135905061205a81612036565b92915050565b5f73ffffffffffffffffffffffffffffffffffffffff82169050919050565b5f61208982612060565b9050919050565b6120998161207f565b81146120a3575f5ffd5b50565b5f813590506120b481612090565b92915050565b5f5f5f606084860312156120d1576120d0611cda565b5b5f84013567ffffffffffffffff8111156120ee576120ed611cde565b5b6120fa86828701612009565b935050602061210b8682870161204c565b925050604061211c868287016120a6565b9150509250925092565b5f8115159050919050565b61213a81612126565b82525050565b5f6020820190506121535f830184612131565b92915050565b5f60208201905061216c5f830184611dc8565b92915050565b5f81519050919050565b5f82825260208201905092915050565b5f819050602082019050919050565b6121a481611d40565b82525050565b5f82825260208201905092915050565b5f6121c482611d58565b6121ce81856121aa565b93506121de818560208601611d72565b6121e781611d80565b840191505092915050565b6121fb81611ce2565b82525050565b61220a81611e2a565b82525050565b5f60a083015f8301516122255f86018261219b565b506020830151848203602086015261223d82826121ba565b9150506040830151848203604086015261225782826121ba565b915050606083015161226c60608601826121f2565b50608083015161227f6080860182612201565b508091505092915050565b5f6122958383612210565b905092915050565b5f602082019050919050565b5f6122b382612172565b6122bd818561217c565b9350836020820285016122cf8561218c565b805f5b8581101561230a57848403895281516122eb858261228a565b94506122f68361229d565b925060208a019950506001810190506122d2565b50829750879550505050505092915050565b5f81519050919050565b5f82825260208201905092915050565b5f819050602082019050919050565b5f61235083836121f2565b60208301905092915050565b5f602082019050919050565b5f6123728261231c565b61237c8185612326565b935061238783612336565b805f5b838110156123b757815161239e8882612345565b97506123a98361235c565b92505060018101905061238a565b5085935050505092915050565b5f6040820190508181035f8301526123dc81856122a9565b905081810360208301526123f08184612368565b90509392505050565b5f6020828403121561240e5761240d611cda565b5b5f61241b8482850161204c565b91505092915050565b5f6020820190506124375f830184611d49565b92915050565b5f6020828403121561245257612451611cda565b5b5f82013567ffffffffffffffff81111561246f5761246e611cde565b5b61247b84828501612009565b91505092915050565b5f60ff82169050919050565b61249981612484565b82525050565b5f6060820190506124b25f830186611d49565b6124bf6020830185611d49565b6124cc6040830184612490565b949350505050565b5f602082840312156124e9576124e8611cda565b5b5f6124f6848285016120a6565b91505092915050565b5f6040820190506125125f830185612131565b61251f6020830184611d49565b9392505050565b5f6020820190508181035f83015261253e8184612368565b905092915050565b5f67ffffffffffffffff8211156125605761255f611f12565b5b61256982611d80565b9050602081019050919050565b5f61258861258384612546565b611f70565b9050828152602081018484840111156125a4576125a3611f0e565b5b6125af848285611fba565b509392505050565b5f82601f8301126125cb576125ca611f0a565b5b81356125db848260208601612576565b91505092915050565b5f5f5f5f5f60a086880312156125fd576125fc611cda565b5b5f61260a8882890161204c565b955050602086013567ffffffffffffffff81111561262b5761262a611cde565b5b612637888289016125b7565b945050604086013567ffffffffffffffff81111561265857612657611cde565b5b612664888289016125b7565b935050606086013567ffffffffffffffff81111561268557612684611cde565b5b612691888289016125b7565b925050608086013567ffffffffffffffff8111156126b2576126b1611cde565b5b6126be888289016125b7565b9150509295509295909350565b5f6020820190508181035f8301526126e381846122a9565b905092915050565b5f67ffffffffffffffff82111561270557612704611f12565b5b602082029050602081019050919050565b5f5ffd5b5f61272c612727846126eb565b611f70565b9050808382526020820190506020840283018581111561274f5761274e612716565b5b835b8181101561277857806127648882611d01565b845260208401935050602081019050612751565b5050509392505050565b5f82601f83011261279657612795611f0a565b5b81356127a684826020860161271a565b91505092915050565b5f602082840312156127c4576127c3611cda565b5b5f82013567ffffffffffffffff8111156127e1576127e0611cde565b5b6127ed84828501612782565b91505092915050565b5f6040820190506128095f830185611dc8565b6128166020830184611dc8565b9392505050565b6128268161207f565b82525050565b5f60208201905061283f5f83018461281d565b92915050565b7f4e487b71000000000000000000000000000000000000000000000000000000005f52602260045260245ffd5b5f600282049050600182168061288957607f821691505b60208210810361289c5761289b612845565b5b50919050565b7f4f6e6c792061646d696e210000000000000000000000000000000000000000005f82015250565b5f6128d6600b83611d62565b91506128e1826128a2565b602082019050919050565b5f6020820190508181035f830152612903816128ca565b9050919050565b7f496e646578206f7574206f6620626f756e6473000000000000000000000000005f82015250565b5f61293e601383611d62565b91506129498261290a565b602082019050919050565b5f6020820190508181035f83015261296b81612932565b9050919050565b7f4e487b71000000000000000000000000000000000000000000000000000000005f52603260045260245ffd5b5f6040820190506129b25f830185611e3b565b6129bf6020830184611e3b565b9392505050565b5f81905092915050565b7f19457468657265756d205369676e6564204d6573736167653a0a3332000000005f82015250565b5f612a04601c836129c6565b9150612a0f826129d0565b601c82019050919050565b5f819050919050565b612a34612a2f82611d40565b612a1a565b82525050565b5f612a44826129f8565b9150612a508284612a23565b60208201915081905092915050565b5f608082019050612a725f830187611d49565b612a7f6020830186612490565b612a8c6040830185611d49565b612a996060830184611d49565b95945050505050565b7f4e487b71000000000000000000000000000000000000000000000000000000005f52601160045260245ffd5b5f612ad982611ce2565b91507fffffffffffffffffffffffffffffffffffffffffffffffffffffffffffffffff8203612b0b57612b0a612aa2565b5b600182019050919050565b5f612b2082611ce2565b9150612b2b83611ce2565b9250828202612b3981611ce2565b91508282048414831517612b5057612b4f612aa2565b5b5092915050565b5f612b6182611ce2565b9150612b6c83611ce2565b9250828201905080821115612b8457612b83612aa2565b5b92915050565b7f4e487b71000000000000000000000000000000000000000000000000000000005f52600160045260245ffd5b5f819050919050565b612bd1612bcc82611ce2565b612bb7565b82525050565b5f612be28286612bc0565b602082019150612bf28285612a23565b602082019150612c028284612bc0565b602082019150819050949350505050565b5f8160601b9050919050565b5f612c2982612c13565b9050919050565b5f612c3a82612c1f565b9050919050565b612c52612c4d8261207f565b612c30565b82525050565b5f612c638285612a23565b602082019150612c738284612c41565b6014820191508190509392505050565b7f696e76616c6964207369676e61747572650000000000000000000000000000005f82015250565b5f612cb7601183611d62565b9150612cc282612c83565b602082019050919050565b5f6020820190508181035f830152612ce481612cab565b9050919050565b7f496e76616c6964206c696d6974000000000000000000000000000000000000005f82015250565b5f612d1f600d83611d62565b9150612d2a82612ceb565b602082019050919050565b5f6020820190508181035f830152612d4c81612d13565b9050919050565b5f612d5d82611ce2565b9150612d6883611ce2565b9250828203905081811115612d8057612d7f612aa2565b5b92915050565b7f596f7520616c72656164792072656769737465726420612070726f6a656374215f82015250565b5f612dba602083611d62565b9150612dc582612d86565b602082019050919050565b5f6020820190508181035f830152612de781612dae565b9050919050565b5f819050815f5260205f209050919050565b5f6020601f8301049050919050565b5f82821b905092915050565b5f60088302612e4a7fffffffffffffffffffffffffffffffffffffffffffffffffffffffffffffffff82612e0f565b612e548683612e0f565b95508019841693508086168417925050509392505050565b5f819050919050565b5f612e8f612e8a612e8584611ce2565b612e6c565b611ce2565b9050919050565b5f819050919050565b612ea883612e75565b612ebc612eb482612e96565b848454612e1b565b825550505050565b5f5f905090565b612ed3612ec4565b612ede818484612e9f565b505050565b5b81811015612f0157612ef65f82612ecb565b600181019050612ee4565b5050565b601f821115612f4657612f1781612dee565b612f2084612e00565b81016020851015612f2f578190505b612f43612f3b85612e00565b830182612ee3565b50505b505050565b5f82821c905092915050565b5f612f665f1984600802612f4b565b1980831691505092915050565b5f612f7e8383612f57565b9150826002028217905092915050565b612f9782611d58565b67ffffffffffffffff811115612fb057612faf611f12565b5b612fba8254612872565b612fc5828285612f05565b5f60209050601f831160018114612ff6575f8415612fe4578287015190505b612fee8582612f73565b865550613055565b601f19841661300486612dee565b5f5b8281101561302b57848901518255600182019150602085019450602081019050613006565b868310156130485784890151613044601f891682612f57565b8355505b6001600288020188555050505b505050505050565b5f61306782611d58565b61307181856129c6565b9350613081818560208601611d72565b80840191505092915050565b5f613098828461305d565b915081905092915050565b5f6060820190508181035f8301526130bb8186611d90565b905081810360208301526130cf8185611d90565b90506130de6040830184611dc8565b949350505050565b7f4578636565646564206d6178696d756d20766f746573210000000000000000005f82015250565b5f61311a601783611d62565b9150613125826130e6565b602082019050919050565b5f6020820190508181035f8301526131478161310e565b9050919050565b7f416c726561647920766f746564210000000000000000000000000000000000005f82015250565b5f613182600e83611d62565b915061318d8261314e565b602082019050919050565b5f6020820190508181035f8301526131af81613176565b9050919050565b7f496e76616c69642070726f706f73616c207374617465210000000000000000005f82015250565b5f6131ea601783611d62565b91506131f5826131b6565b602082019050919050565b5f6020820190508181035f830152613217816131de565b905091905056fea26469706673582212203c754914e8a2e55b5264f83c7c9051c52c0b71d0098443c5608cd69a753bbd5164736f6c634300081c0033",
  "linkReferences": {},
  "deployedLinkReferences": {},
  "immutableReferences": {},
  "inputSourceName": "project/contracts/Voting.sol",
  "buildInfoId": "solc-0_8_28-c43c9e4a97f255f87e7a61a0aa8ea2fea4b7e209"
}