{
  "_format": "hh3-artifact-1",
  "contractName": "Catalog",
  "sourceName": "contracts/Catalog.sol",
  "abi": [
    {
      "inputs": [],
      "stateMutability": "nonpayable",
      "type": "constructor"
    },
    {
      "inputs": [
        {
          "internalType": "bytes32",
          "name": "code",
          "type": "bytes32"
        },
        {
          "internalType": "uint256",
          "name": "available",
          "type": "uint256"
        },
        {
          "internalType": "uint256",
          "name": "requested",
          "type": "uint256"
        }
      ],
      "name": "InsufficientStock",
      "type": "error"
    },
    {
      "inputs": [
        {
          "internalType": "bytes32",
          "name": "code",
          "type": "bytes32"
        }
      ],
      "name": "ProductAlreadyExists",
      "type": "error"
    },
    {
      "inputs": [
        {
          "internalType": "bytes32",
          "name": "code",
          "type": "bytes32"
        }
      ],
      "name": "ProductNotFound",
      "type": "error"
    },
    {
      "inputs": [
        {
          "internalType": "bytes32",
          "name": "code",
          "type": "bytes32"
        }
      ],
      "name": "ProductOutOfStock",
      "type": "error"
    },
    {
      "inputs": [],
      "name": "UnauthorizedManager",
      "type": "error"
    },
    {
      "anonymous": false,
      "inputs": [
        {
          "indexed": true,
          "internalType": "address",
          "name": "manager",
          "type": "address"
        }
      ],
      "name": "ManagerAuthorized",
      "type": "event"
    },
    {
      "anonymous": false,
      "inputs": [
        {
          "indexed": true,
          "internalType": "address",
          "name": "manager",
          "type": "address"
        }
      ],
      "name": "ManagerRevoked",
      "type": "event"
    },
    {
      "anonymous": false,
      "inputs": [
        {
          "indexed": true,
          "internalType": "bytes32",
          "name": "code",
          "type": "bytes32"
        },
        {
          "indexed": false,
          "internalType": "uint256",
          "name": "oldPrice",
          "type": "uint256"
        },
        {
          "indexed": false,
          "internalType": "uint256",
          "name": "newPrice",
          "type": "uint256"
        }
      ],
      "name": "PriceUpdated",
      "type": "event"
    },
    {
      "anonymous": false,
      "inputs": [
        {
          "indexed": true,
          "internalType": "bytes32",
          "name": "code",
          "type": "bytes32"
        },
        {
          "indexed": false,
          "internalType": "string",
          "name": "description",
          "type": "string"
        },
        {
          "indexed": false,
          "internalType": "uint256",
          "name": "price",
          "type": "uint256"
        }
      ],
      "name": "ProductAdded",
      "type": "event"
    },
    {
      "anonymous": false,
      "inputs": [
        {
          "indexed": true,
          "internalType": "bytes32",
          "name": "code",
          "type": "bytes32"
        }
      ],
      "name": "PromoEnded",
      "type": "event"
    },
    {
      "anonymous": false,
      "inputs": [
        {
          "indexed": true,
          "internalType": "bytes32",
          "name": "code",
          "type": "bytes32"
        },
        {
          "indexed": false,
          "internalType": "uint256",
          "name": "percent",
          "type": "uint256"
        },
        {
          "indexed": false,
          "internalType": "uint256",
          "name": "duration",
          "type": "uint256"
        }
      ],
      "name": "PromoStarted",
      "type": "event"
    },
    {
      "anonymous": false,
      "inputs": [
        {
          "indexed": true,
          "internalType": "bytes32",
          "name": "code",
          "type": "bytes32"
        },
        {
          "indexed": false,
          "internalType": "uint256",
          "name": "newStock",
          "type": "uint256"
        }
      ],
      "name": "StockUpdated",
      "type": "event"
    },
    {
      "inputs": [
        {
          "internalType": "bytes32",
          "name": "code",
          "type": "bytes32"
        },
        {
          "internalType": "string",
          "name": "description",
          "type": "string"
        },
        {
          "internalType": "uint256",
          "name": "price",
          "type": "uint256"
        },
        {
          "internalType": "uint256",
          "name": "initialStock",
          "type": "uint256"
        }
      ],
      "name": "addProduct",
      "outputs": [],
      "stateMutability": "nonpayable",
      "type": "function"
    },
    {
      "inputs": [],
      "name": "admin",
      "outputs": [
        {
          "internalType": "address",
          "name": "",
          "type": "address"
        }
      ],
      "stateMutability": "view",
      "type": "function"
    },
    {
      "inputs": [
        {
          "internalType": "address",
          "name": "manager",
          "type": "address"
        }
      ],
      "name": "authorizeManager",
      "outputs": [],
      "stateMutability": "nonpayable",
      "type": "function"
    },
    {
      "inputs": [
        {
          "internalType": "address",
          "name": "",
          "type": "address"
        }
      ],
      "name": "authorizedManagers",
      "outputs": [
        {
          "internalType": "bool",
          "name": "",
          "type": "bool"
        }
      ],
      "stateMutability": "view",
      "type": "function"
    },
    {
      "inputs": [
        {
          "internalType": "bytes32",
          "name": "code",
          "type": "bytes32"
        }
      ],
      "name": "calculateFinalPrice",
      "outputs": [
        {
          "internalType": "uint256",
          "name": "",
          "type": "uint256"
        }
      ],
      "stateMutability": "view",
      "type": "function"
    },
    {
      "inputs": [
        {
          "internalType": "bytes32",
          "name": "code",
          "type": "bytes32"
        },
        {
          "internalType": "uint256",
          "name": "amount",
          "type": "uint256"
        }
      ],
      "name": "decreaseStock",
      "outputs": [],
      "stateMutability": "nonpayable",
      "type": "function"
    },
    {
      "inputs": [
        {
          "internalType": "bytes32",
          "name": "code",
          "type": "bytes32"
        }
      ],
      "name": "endPromo",
      "outputs": [],
      "stateMutability": "nonpayable",
      "type": "function"
    },
    {
      "inputs": [
        {
          "internalType": "bytes32",
          "name": "code",
          "type": "bytes32"
        }
      ],
      "name": "getProduct",
      "outputs": [
        {
          "components": [
            {
              "internalType": "bytes32",
              "name": "code",
              "type": "bytes32"
            },
            {
              "internalType": "string",
              "name": "description",
              "type": "string"
            },
            {
              "internalType": "uint256",
              "name": "price",
              "type": "uint256"
            },
            {
              "internalType": "bool",
              "name": "inStock",
              "type": "bool"
            },
            {
              "internalType": "uint256",
              "name": "stock",
              "type": "uint256"
            }
          ],
          "internalType": "struct Catalog.Product",
          "name": "",
          "type": "tuple"
        }
      ],
      "stateMutability": "view",
      "type": "function"
    },
    {
      "inputs": [],
      "name": "getProductCount",
      "outputs": [
        {
          "internalType": "uint256",
          "name": "",
          "type": "uint256"
        }
      ],
      "stateMutability": "view",
      "type": "function"
    },
    {
      "inputs": [
        {
          "internalType": "bool",
          "name": "filterInStock",
          "type": "bool"
        },
        {
          "internalType": "bool",
          "name": "filterInPromo",
          "type": "bool"
        }
      ],
      "name": "getProducts",
      "outputs": [
        {
          "components": [
            {
              "internalType": "bytes32",
              "name": "code",
              "type": "bytes32"
            },
            {
              "internalType": "string",
              "name": "description",
              "type": "string"
            },
            {
              "internalType": "uint256",
              "name": "price",
              "type": "uint256"
            },
            {
              "internalType": "bool",
              "name": "inStock",
              "type": "bool"
            },
            {
              "internalType": "uint256",
              "name": "stock",
              "type": "uint256"
            }
          ],
          "internalType": "struct Catalog.Product[]",
          "name": "",
          "type": "tuple[]"
        }
      ],
      "stateMutability": "view",
      "type": "function"
    },
    {
      "inputs": [],
      "name": "getProductsWithPrices",
      "outputs": [
        {
          "components": [
            {
              "internalType": "bytes32",
              "name": "code",
              "type": "bytes32"
            },
            {
              "internalType": "string",
              "name": "description",
              "type": "string"
            },
            {
              "internalType": "uint256",
              "name": "price",
              "type": "uint256"
            },
            {
              "internalType": "bool",
              "name": "inStock",
              "type": "bool"
            },
            {
              "internalType": "uint256",
              "name": "stock",
              "type": "uint256"
            }
          ],
          "internalType": "struct Catalog.Product[]",
          "name": "productList",
          "type": "tuple[]"
        }
      ],
      "stateMutability": "view",
      "type": "function"
    },
    {
      "inputs": [
        {
          "internalType": "bytes32",
          "name": "code",
          "type": "bytes32"
        },
        {
          "internalType": "uint256",
          "name": "amount",
          "type": "uint256"
        }
      ],
      "name": "increaseStock",
      "outputs": [],
      "stateMutability": "nonpayable",
      "type": "function"
    },
    {
      "inputs": [
        {
          "internalType": "bytes32",
          "name": "code",
          "type": "bytes32"
        },
        {
          "internalType": "uint256",
          "name": "quantity",
          "type": "uint256"
        }
      ],
      "name": "isAvailable",
      "outputs": [
        {
          "internalType": "bool",
          "name": "",
          "type": "bool"
        }
      ],
      "stateMutability": "view",
      "type": "function"
    },
    {
      "inputs": [
        {
          "internalType": "bytes32",
          "name": "code",
          "type": "bytes32"
        }
      ],
      "name": "isPromoActive",
      "outputs": [
        {
          "internalType": "bool",
          "name": "",
          "type": "bool"
        }
      ],
      "stateMutability": "view",
      "type": "function"
    },
    {
      "inputs": [
        {
          "internalType": "bytes32",
          "name": "",
          "type": "bytes32"
        }
      ],
      "name": "productPromos",
      "outputs": [
        {
          "internalType": "enum Catalog.State",
          "name": "state",
          "type": "uint8"
        },
        {
          "internalType": "uint256",
          "name": "start",
          "type": "uint256"
        },
        {
          "internalType": "uint256",
          "name": "end",
          "type": "uint256"
        },
        {
          "internalType": "uint256",
          "name": "percent",
          "type": "uint256"
        }
      ],
      "stateMutability": "view",
      "type": "function"
    },
    {
      "inputs": [
        {
          "internalType": "uint256",
          "name": "",
          "type": "uint256"
        }
      ],
      "name": "products",
      "outputs": [
        {
          "internalType": "bytes32",
          "name": "code",
          "type": "bytes32"
        },
        {
          "internalType": "string",
          "name": "description",
          "type": "string"
        },
        {
          "internalType": "uint256",
          "name": "price",
          "type": "uint256"
        },
        {
          "internalType": "bool",
          "name": "inStock",
          "type": "bool"
        },
        {
          "internalType": "uint256",
          "name": "stock",
          "type": "uint256"
        }
      ],
      "stateMutability": "view",
      "type": "function"
    },
    {
      "inputs": [
        {
          "internalType": "address",
          "name": "manager",
          "type": "address"
        }
      ],
      "name": "revokeManager",
      "outputs": [],
      "stateMutability": "nonpayable",
      "type": "function"
    },
    {
      "inputs": [
        {
          "internalType": "bytes32",
          "name": "code",
          "type": "bytes32"
        },
        {
          "internalType": "uint256",
          "name": "ndays",
          "type": "uint256"
        },
        {
          "internalType": "uint256",
          "name": "percent",
          "type": "uint256"
        }
      ],
      "name": "startProductPromo",
      "outputs": [],
      "stateMutability": "nonpayable",
      "type": "function"
    },
    {
      "inputs": [
        {
          "internalType": "bytes32[]",
          "name": "codes",
          "type": "bytes32[]"
        },
        {
          "internalType": "uint256",
          "name": "ndays",
          "type": "uint256"
        },
        {
          "internalType": "uint256",
          "name": "percent",
          "type": "uint256"
        }
      ],
      "name": "startPromoBatch",
      "outputs": [],
      "stateMutability": "nonpayable",
      "type": "function"
    },
    {
      "inputs": [
        {
          "internalType": "bytes32",
          "name": "code",
          "type": "bytes32"
        },
        {
          "internalType": "uint256",
          "name": "newPrice",
          "type": "uint256"
        }
      ],
      "name": "updatePrice",
      "outputs": [],
      "stateMutability": "nonpayable",
      "type": "function"
    }
  ],
  "bytecode": "0x6080604052348015600e575f5ffd5b503360035f6101000a81548173ffffffffffffffffffffffffffffffffffffffff021916908373ffffffffffffffffffffffffffffffffffffffff160217905550612ce48061005c5f395ff3fe608060405234801561000f575f5ffd5b506004361061012a575f3560e01c80635f704f3e116100ab578063964983701161006f5780639649837014610352578063b56428261461036e578063bfd7cd791461039e578063e554685e146103d1578063f851a440146103ed5761012a565b80635f704f3e146102ae57806361588e9a146102ca5780636ff4c6d5146102e65780637acc0b2014610302578063820e6733146103365761012a565b806332961954116100f257806332961954146101e4578063377e32e6146102145780633a20e9df146102305780634a348da9146102605780635902b42e1461027e5761012a565b80630a3cb21b1461012e57806312a68ced1461015e57806317a192461461017a578063267c8507146101aa5780632fd073dc146101c6575b5f5ffd5b61014860048036038101906101439190611d1d565b61040b565b6040516101559190611d62565b60405180910390f35b61017860048036038101906101739190611dae565b610428565b005b610194600480360381019061018f9190611e03565b610530565b6040516101a19190612015565b60405180910390f35b6101c460048036038101906101bf9190611d1d565b6107f8565b005b6101ce610922565b6040516101db9190612015565b60405180910390f35b6101fe60048036038101906101f99190611dae565b610afc565b60405161020b9190612044565b60405180910390f35b61022e60048036038101906102299190611d1d565b610bf4565b005b61024a60048036038101906102459190611dae565b610d1d565b60405161025791906120d0565b60405180910390f35b610268610e2a565b6040516102759190612044565b60405180910390f35b61029860048036038101906102939190611dae565b610e35565b6040516102a59190611d62565b60405180910390f35b6102c860048036038101906102c3919061211a565b610efe565b005b6102e460048036038101906102df919061211a565b611026565b005b61030060048036038101906102fb9190612284565b611168565b005b61031c60048036038101906103179190612304565b611386565b60405161032d959493929190612386565b60405180910390f35b610350600480360381019061034b91906124a2565b611458565b005b61036c6004803603810190610367919061250e565b61167a565b005b6103886004803603810190610383919061211a565b61189f565b6040516103959190611d62565b60405180910390f35b6103b860048036038101906103b39190611dae565b6119bf565b6040516103c894939291906125d1565b60405180910390f35b6103eb60048036038101906103e6919061211a565b6119f7565b005b6103f5611b79565b6040516104029190612623565b60405180910390f35b6004602052805f5260405f205f915054906101000a900460ff1681565b60035f9054906101000a900473ffffffffffffffffffffffffffffffffffffffff1673ffffffffffffffffffffffffffffffffffffffff163373ffffffffffffffffffffffffffffffffffffffff16146104b7576040517f08c379a00000000000000000000000000000000000000000000000000000000081526004016104ae906126ac565b60405180910390fd5b5f60015f8381526020019081526020015f2090504281600201819055506001815f015f6101000a81548160ff021916908360018111156104fa576104f961255e565b5b0217905550817fc5c2574ec133d9dee5f392dc0cfae97f08f88ed4d91a873a829cb2c6a4e765d960405160405180910390a25050565b60605f5f90505f5f90505b5f805490508110156105db5784158061057f57505f8181548110610562576105616126ca565b5b905f5260205f2090600502016003015f9054906101000a900460ff165b80156105ba57508315806105b957506105b85f82815481106105a4576105a36126ca565b5b905f5260205f2090600502015f0154610e35565b5b5b156105ce5781806105ca90612724565b9250505b808060010191505061053b565b505f8167ffffffffffffffff8111156105f7576105f6612160565b5b60405190808252806020026020018201604052801561063057816020015b61061d611c85565b8152602001906001900390816106155790505b5090505f5f90505f5f90505b5f805490508110156107eb5786158061068057505f8181548110610663576106626126ca565b5b905f5260205f2090600502016003015f9054906101000a900460ff165b80156106bb57508515806106ba57506106b95f82815481106106a5576106a46126ca565b5b905f5260205f2090600502015f0154610e35565b5b5b156107de575f81815481106106d3576106d26126ca565b5b905f5260205f2090600502016040518060a00160405290815f820154815260200160018201805461070390612798565b80601f016020809104026020016040519081016040528092919081815260200182805461072f90612798565b801561077a5780601f106107515761010080835404028352916020019161077a565b820191905f5260205f20905b81548152906001019060200180831161075d57829003601f168201915b5050505050815260200160028201548152602001600382015f9054906101000a900460ff161515151581526020016004820154815250508383815181106107c4576107c36126ca565b5b602002602001018190525081806107da90612724565b9250505b808060010191505061063c565b5081935050505092915050565b60035f9054906101000a900473ffffffffffffffffffffffffffffffffffffffff1673ffffffffffffffffffffffffffffffffffffffff163373ffffffffffffffffffffffffffffffffffffffff1614610887576040517f08c379a000000000000000000000000000000000000000000000000000000000815260040161087e906126ac565b60405180910390fd5b600160045f8373ffffffffffffffffffffffffffffffffffffffff1673ffffffffffffffffffffffffffffffffffffffff1681526020019081526020015f205f6101000a81548160ff0219169083151502179055508073ffffffffffffffffffffffffffffffffffffffff167f7928c1bf496af53c7b052b3452a910ddebbe58956f6218faff73b8274cae2e0c60405160405180910390a250565b60605f8054905067ffffffffffffffff81111561094257610941612160565b5b60405190808252806020026020018201604052801561097b57816020015b610968611c85565b8152602001906001900390816109605790505b5090505f5f90505b5f80549050811015610af8575f81815481106109a2576109a16126ca565b5b905f5260205f2090600502016040518060a00160405290815f82015481526020016001820180546109d290612798565b80601f01602080910402602001604051908101604052809291908181526020018280546109fe90612798565b8015610a495780601f10610a2057610100808354040283529160200191610a49565b820191905f5260205f20905b815481529060010190602001808311610a2c57829003601f168201915b5050505050815260200160028201548152602001600382015f9054906101000a900460ff16151515158152602001600482015481525050828281518110610a9357610a926126ca565b5b6020026020010181905250610ac85f8281548110610ab457610ab36126ca565b5b905f5260205f2090600502015f0154610afc565b828281518110610adb57610ada6126ca565b5b602002602001015160400181815250508080600101915050610983565b5090565b5f5f610b0783611b9e565b90505f5f8281548110610b1d57610b1c6126ca565b5b905f5260205f209060050201600201549050610b3884610e35565b15610be9575f60015f8681526020019081526020015f206040518060800160405290815f82015f9054906101000a900460ff166001811115610b7d57610b7c61255e565b5b6001811115610b8f57610b8e61255e565b5b8152602001600182015481526020016002820154815260200160038201548152505090505f6064826060015184610bc691906127c8565b610bd09190612836565b90508083610bde9190612866565b945050505050610bef565b80925050505b919050565b60035f9054906101000a900473ffffffffffffffffffffffffffffffffffffffff1673ffffffffffffffffffffffffffffffffffffffff163373ffffffffffffffffffffffffffffffffffffffff1614610c83576040517f08c379a0000000000000000000000000000000000000000000000000000000008152600401610c7a906126ac565b60405180910390fd5b5f60045f8373ffffffffffffffffffffffffffffffffffffffff1673ffffffffffffffffffffffffffffffffffffffff1681526020019081526020015f205f6101000a81548160ff0219169083151502179055508073ffffffffffffffffffffffffffffffffffffffff167fe5def11e0516f317f9c37b8835aec29fc01db4d4b6d6fecaca339d3596a29bc160405160405180910390a250565b610d25611c85565b5f610d2f83611b9e565b90505f8181548110610d4457610d436126ca565b5b905f5260205f2090600502016040518060a00160405290815f8201548152602001600182018054610d7490612798565b80601f0160208091040260200160405190810160405280929190818152602001828054610da090612798565b8015610deb5780601f10610dc257610100808354040283529160200191610deb565b820191905f5260205f20905b815481529060010190602001808311610dce57829003601f168201915b5050505050815260200160028201548152602001600382015f9054906101000a900460ff16151515158152602001600482015481525050915050919050565b5f5f80549050905090565b5f5f60015f8481526020019081526020015f206040518060800160405290815f82015f9054906101000a900460ff166001811115610e7657610e7561255e565b5b6001811115610e8857610e8761255e565b5b8152602001600182015481526020016002820154815260200160038201548152505090505f6001811115610ebf57610ebe61255e565b5b815f01516001811115610ed557610ed461255e565b5b148015610ee6575080602001514210155b8015610ef6575080604001514211155b915050919050565b60035f9054906101000a900473ffffffffffffffffffffffffffffffffffffffff1673ffffffffffffffffffffffffffffffffffffffff163373ffffffffffffffffffffffffffffffffffffffff1614610f8d576040517f08c379a0000000000000000000000000000000000000000000000000000000008152600401610f84906126ac565b60405180910390fd5b5f610f9783611b9e565b90505f5f8281548110610fad57610fac6126ca565b5b905f5260205f209060050201600201549050825f8381548110610fd357610fd26126ca565b5b905f5260205f20906005020160020181905550837fbcd10d64fce9dcf9568572ed92e371df336d32649e8960a045c9548794a44b268285604051611018929190612899565b60405180910390a250505050565b60035f9054906101000a900473ffffffffffffffffffffffffffffffffffffffff1673ffffffffffffffffffffffffffffffffffffffff163373ffffffffffffffffffffffffffffffffffffffff16146110b5576040517f08c379a00000000000000000000000000000000000000000000000000000000081526004016110ac906126ac565b60405180910390fd5b5f6110bf83611b9e565b90505f5f82815481106110d5576110d46126ca565b5b905f5260205f209060050201905082816004015f8282546110f691906128c0565b925050819055505f81600401541115611126576001816003015f6101000a81548160ff0219169083151502179055505b837f1dc600a0de973fe7a0046fa7d61b75642a4f0aea5f07b7b8710f4723d0878f8a826004015460405161115a9190612044565b60405180910390a250505050565b60035f9054906101000a900473ffffffffffffffffffffffffffffffffffffffff1673ffffffffffffffffffffffffffffffffffffffff163373ffffffffffffffffffffffffffffffffffffffff16146111f7576040517f08c379a00000000000000000000000000000000000000000000000000000000081526004016111ee906126ac565b60405180910390fd5b5f5f90505b5f8054905081101561127a57845f828154811061121c5761121b6126ca565b5b905f5260205f2090600502015f01540361126d57846040517f3cef866700000000000000000000000000000000000000000000000000000000815260040161126491906128f3565b60405180910390fd5b80806001019150506111fc565b505f6040518060a001604052808681526020018581526020018481526020015f84111515815260200183815250908060018154018082558091505060019003905f5260205f2090600502015f909190919091505f820151815f015560208201518160010190816112ea9190612aac565b50604082015181600201556060820151816003015f6101000a81548160ff02191690831515021790555060808201518160040155505060015f805490506113319190612866565b60025f8681526020019081526020015f2081905550837fe5336ab44414563aebe406d3987ae4051ff6da21fc5134a1bb0bd1ec84a987318484604051611378929190612b7b565b60405180910390a250505050565b5f8181548110611394575f80fd5b905f5260205f2090600502015f91509050805f0154908060010180546113b990612798565b80601f01602080910402602001604051908101604052809291908181526020018280546113e590612798565b80156114305780601f1061140757610100808354040283529160200191611430565b820191905f5260205f20905b81548152906001019060200180831161141357829003601f168201915b505050505090806002015490806003015f9054906101000a900460ff16908060040154905085565b60035f9054906101000a900473ffffffffffffffffffffffffffffffffffffffff1673ffffffffffffffffffffffffffffffffffffffff163373ffffffffffffffffffffffffffffffffffffffff16146114e7576040517f08c379a00000000000000000000000000000000000000000000000000000000081526004016114de906126ac565b60405180910390fd5b606481111561152b576040517f08c379a000000000000000000000000000000000000000000000000000000000815260040161152290612bf3565b60405180910390fd5b5f5f90505b83518110156116745760405180608001604052805f60018111156115575761155661255e565b5b8152602001428152602001603c8060188761157291906127c8565b61157c91906127c8565b61158691906127c8565b4261159191906128c0565b81526020018381525060015f8684815181106115b0576115af6126ca565b5b602002602001015181526020019081526020015f205f820151815f015f6101000a81548160ff021916908360018111156115ed576115ec61255e565b5b0217905550602082015181600101556040820151816002015560608201518160030155905050838181518110611626576116256126ca565b5b60200260200101517fe520d5929f89b664ab54dbd253021ea0fff4046d462305488dd85b0f5fe24921838560405161165f929190612899565b60405180910390a28080600101915050611530565b50505050565b60035f9054906101000a900473ffffffffffffffffffffffffffffffffffffffff1673ffffffffffffffffffffffffffffffffffffffff163373ffffffffffffffffffffffffffffffffffffffff1614611709576040517f08c379a0000000000000000000000000000000000000000000000000000000008152600401611700906126ac565b60405180910390fd5b606481111561174d576040517f08c379a000000000000000000000000000000000000000000000000000000000815260040161174490612bf3565b60405180910390fd5b5f61175784611b9e565b90505f80549050811061179f576040517f08c379a000000000000000000000000000000000000000000000000000000000815260040161179690612c5b565b60405180910390fd5b60405180608001604052805f60018111156117bd576117bc61255e565b5b8152602001428152602001603c806018876117d891906127c8565b6117e291906127c8565b6117ec91906127c8565b426117f791906128c0565b81526020018381525060015f8681526020019081526020015f205f820151815f015f6101000a81548160ff021916908360018111156118395761183861255e565b5b0217905550602082015181600101556040820151816002015560608201518160030155905050837fe520d5929f89b664ab54dbd253021ea0fff4046d462305488dd85b0f5fe249218385604051611891929190612899565b60405180910390a250505050565b5f5f6118aa84611b9e565b90505f5f82815481106118c0576118bf6126ca565b5b905f5260205f2090600502016040518060a00160405290815f82015481526020016001820180546118f090612798565b80601f016020809104026020016040519081016040528092919081815260200182805461191c90612798565b80156119675780601f1061193e57610100808354040283529160200191611967565b820191905f5260205f20905b81548152906001019060200180831161194a57829003601f168201915b5050505050815260200160028201548152602001600382015f9054906101000a900460ff161515151581526020016004820154815250509050806060015180156119b5575083816080015110155b9250505092915050565b6001602052805f5260405f205f91509050805f015f9054906101000a900460ff16908060010154908060020154908060030154905084565b60045f3373ffffffffffffffffffffffffffffffffffffffff1673ffffffffffffffffffffffffffffffffffffffff1681526020019081526020015f205f9054906101000a900460ff16611a77576040517fd22434fd00000000000000000000000000000000000000000000000000000000815260040160405180910390fd5b5f611a8183611b9e565b90505f5f8281548110611a9757611a966126ca565b5b905f5260205f20906005020190508281600401541015611af657838160040154846040517f5403a874000000000000000000000000000000000000000000000000000000008152600401611aed93929190612c79565b60405180910390fd5b82816004015f828254611b099190612866565b925050819055505f816004015403611b37575f816003015f6101000a81548160ff0219169083151502179055505b837f1dc600a0de973fe7a0046fa7d61b75642a4f0aea5f07b7b8710f4723d0878f8a8260040154604051611b6b9190612044565b60405180910390a250505050565b60035f9054906101000a900473ffffffffffffffffffffffffffffffffffffffff1681565b5f5f60025f8481526020019081526020015f205490505f8054905081101580611be85750825f8281548110611bd657611bd56126ca565b5b905f5260205f2090600502015f015414155b15611c7b575f5f90505b5f80549050811015611c3d57835f8281548110611c1257611c116126ca565b5b905f5260205f2090600502015f015403611c30578092505050611c80565b8080600101915050611bf2565b50826040517fb9780c7f000000000000000000000000000000000000000000000000000000008152600401611c7291906128f3565b60405180910390fd5b809150505b919050565b6040518060a001604052805f8152602001606081526020015f81526020015f151581526020015f81525090565b5f604051905090565b5f5ffd5b5f5ffd5b5f73ffffffffffffffffffffffffffffffffffffffff82169050919050565b5f611cec82611cc3565b9050919050565b611cfc81611ce2565b8114611d06575f5ffd5b50565b5f81359050611d1781611cf3565b92915050565b5f60208284031215611d3257611d31611cbb565b5b5f611d3f84828501611d09565b91505092915050565b5f8115159050919050565b611d5c81611d48565b82525050565b5f602082019050611d755f830184611d53565b92915050565b5f819050919050565b611d8d81611d7b565b8114611d97575f5ffd5b50565b5f81359050611da881611d84565b92915050565b5f60208284031215611dc357611dc2611cbb565b5b5f611dd084828501611d9a565b91505092915050565b611de281611d48565b8114611dec575f5ffd5b50565b5f81359050611dfd81611dd9565b92915050565b5f5f60408385031215611e1957611e18611cbb565b5b5f611e2685828601611def565b9250506020611e3785828601611def565b9150509250929050565b5f81519050919050565b5f82825260208201905092915050565b5f819050602082019050919050565b611e7381611d7b565b82525050565b5f81519050919050565b5f82825260208201905092915050565b8281835e5f83830152505050565b5f601f19601f8301169050919050565b5f611ebb82611e79565b611ec58185611e83565b9350611ed5818560208601611e93565b611ede81611ea1565b840191505092915050565b5f819050919050565b611efb81611ee9565b82525050565b611f0a81611d48565b82525050565b5f60a083015f830151611f255f860182611e6a565b5060208301518482036020860152611f3d8282611eb1565b9150506040830151611f526040860182611ef2565b506060830151611f656060860182611f01565b506080830151611f786080860182611ef2565b508091505092915050565b5f611f8e8383611f10565b905092915050565b5f602082019050919050565b5f611fac82611e41565b611fb68185611e4b565b935083602082028501611fc885611e5b565b805f5b858110156120035784840389528151611fe48582611f83565b9450611fef83611f96565b925060208a01995050600181019050611fcb565b50829750879550505050505092915050565b5f6020820190508181035f83015261202d8184611fa2565b905092915050565b61203e81611ee9565b82525050565b5f6020820190506120575f830184612035565b92915050565b5f60a083015f8301516120725f860182611e6a565b506020830151848203602086015261208a8282611eb1565b915050604083015161209f6040860182611ef2565b5060608301516120b26060860182611f01565b5060808301516120c56080860182611ef2565b508091505092915050565b5f6020820190508181035f8301526120e8818461205d565b905092915050565b6120f981611ee9565b8114612103575f5ffd5b50565b5f81359050612114816120f0565b92915050565b5f5f604083850312156121305761212f611cbb565b5b5f61213d85828601611d9a565b925050602061214e85828601612106565b9150509250929050565b5f5ffd5b5f5ffd5b7f4e487b71000000000000000000000000000000000000000000000000000000005f52604160045260245ffd5b61219682611ea1565b810181811067ffffffffffffffff821117156121b5576121b4612160565b5b80604052505050565b5f6121c7611cb2565b90506121d3828261218d565b919050565b5f67ffffffffffffffff8211156121f2576121f1612160565b5b6121fb82611ea1565b9050602081019050919050565b828183375f83830152505050565b5f612228612223846121d8565b6121be565b9050828152602081018484840111156122445761224361215c565b5b61224f848285612208565b509392505050565b5f82601f83011261226b5761226a612158565b5b813561227b848260208601612216565b91505092915050565b5f5f5f5f6080858703121561229c5761229b611cbb565b5b5f6122a987828801611d9a565b945050602085013567ffffffffffffffff8111156122ca576122c9611cbf565b5b6122d687828801612257565b93505060406122e787828801612106565b92505060606122f887828801612106565b91505092959194509250565b5f6020828403121561231957612318611cbb565b5b5f61232684828501612106565b91505092915050565b61233881611d7b565b82525050565b5f82825260208201905092915050565b5f61235882611e79565b612362818561233e565b9350612372818560208601611e93565b61237b81611ea1565b840191505092915050565b5f60a0820190506123995f83018861232f565b81810360208301526123ab818761234e565b90506123ba6040830186612035565b6123c76060830185611d53565b6123d46080830184612035565b9695505050505050565b5f67ffffffffffffffff8211156123f8576123f7612160565b5b602082029050602081019050919050565b5f5ffd5b5f61241f61241a846123de565b6121be565b9050808382526020820190506020840283018581111561244257612441612409565b5b835b8181101561246b57806124578882611d9a565b845260208401935050602081019050612444565b5050509392505050565b5f82601f83011261248957612488612158565b5b813561249984826020860161240d565b91505092915050565b5f5f5f606084860312156124b9576124b8611cbb565b5b5f84013567ffffffffffffffff8111156124d6576124d5611cbf565b5b6124e286828701612475565b93505060206124f386828701612106565b925050604061250486828701612106565b9150509250925092565b5f5f5f6060848603121561252557612524611cbb565b5b5f61253286828701611d9a565b935050602061254386828701612106565b925050604061255486828701612106565b9150509250925092565b7f4e487b71000000000000000000000000000000000000000000000000000000005f52602160045260245ffd5b6002811061259c5761259b61255e565b5b50565b5f8190506125ac8261258b565b919050565b5f6125bb8261259f565b9050919050565b6125cb816125b1565b82525050565b5f6080820190506125e45f8301876125c2565b6125f16020830186612035565b6125fe6040830185612035565b61260b6060830184612035565b95945050505050565b61261d81611ce2565b82525050565b5f6020820190506126365f830184612614565b92915050565b7f4f6e6c792061646d696e2063616e2063616c6c20746869732066756e6374696f5f8201527f6e00000000000000000000000000000000000000000000000000000000000000602082015250565b5f61269660218361233e565b91506126a18261263c565b604082019050919050565b5f6020820190508181035f8301526126c38161268a565b9050919050565b7f4e487b71000000000000000000000000000000000000000000000000000000005f52603260045260245ffd5b7f4e487b71000000000000000000000000000000000000000000000000000000005f52601160045260245ffd5b5f61272e82611ee9565b91507fffffffffffffffffffffffffffffffffffffffffffffffffffffffffffffffff82036127605761275f6126f7565b5b600182019050919050565b7f4e487b71000000000000000000000000000000000000000000000000000000005f52602260045260245ffd5b5f60028204905060018216806127af57607f821691505b6020821081036127c2576127c161276b565b5b50919050565b5f6127d282611ee9565b91506127dd83611ee9565b92508282026127eb81611ee9565b91508282048414831517612802576128016126f7565b5b5092915050565b7f4e487b71000000000000000000000000000000000000000000000000000000005f52601260045260245ffd5b5f61284082611ee9565b915061284b83611ee9565b92508261285b5761285a612809565b5b828204905092915050565b5f61287082611ee9565b915061287b83611ee9565b9250828203905081811115612893576128926126f7565b5b92915050565b5f6040820190506128ac5f830185612035565b6128b96020830184612035565b9392505050565b5f6128ca82611ee9565b91506128d583611ee9565b92508282019050808211156128ed576128ec6126f7565b5b92915050565b5f6020820190506129065f83018461232f565b92915050565b5f819050815f5260205f209050919050565b5f6020601f8301049050919050565b5f82821b905092915050565b5f600883026129687fffffffffffffffffffffffffffffffffffffffffffffffffffffffffffffffff8261292d565b612972868361292d565b95508019841693508086168417925050509392505050565b5f819050919050565b5f6129ad6129a86129a384611ee9565b61298a565b611ee9565b9050919050565b5f819050919050565b6129c683612993565b6129da6129d2826129b4565b848454612939565b825550505050565b5f5f905090565b6129f16129e2565b6129fc8184846129bd565b505050565b5b81811015612a1f57612a145f826129e9565b600181019050612a02565b5050565b601f821115612a6457612a358161290c565b612a3e8461291e565b81016020851015612a4d578190505b612a61612a598561291e565b830182612a01565b50505b505050565b5f82821c905092915050565b5f612a845f1984600802612a69565b1980831691505092915050565b5f612a9c8383612a75565b9150826002028217905092915050565b612ab582611e79565b67ffffffffffffffff811115612ace57612acd612160565b5b612ad88254612798565b612ae3828285612a23565b5f60209050601f831160018114612b14575f8415612b02578287015190505b612b0c8582612a91565b865550612b73565b601f198416612b228661290c565b5f5b82811015612b4957848901518255600182019150602085019450602081019050612b24565b86831015612b665784890151612b62601f891682612a75565b8355505b6001600288020188555050505b505050505050565b5f6040820190508181035f830152612b93818561234e565b9050612ba26020830184612035565b9392505050565b7f50657263656e742063616e6e6f742065786365656420313030000000000000005f82015250565b5f612bdd60198361233e565b9150612be882612ba9565b602082019050919050565b5f6020820190508181035f830152612c0a81612bd1565b9050919050565b7f50726f6475637420646f6573206e6f74206578697374000000000000000000005f82015250565b5f612c4560168361233e565b9150612c5082612c11565b602082019050919050565b5f6020820190508181035f830152612c7281612c39565b9050919050565b5f606082019050612c8c5f83018661232f565b612c996020830185612035565b612ca66040830184612035565b94935050505056fea26469706673582212200a41a65e81253275b2d7d9a8d655fe34e6a9f17291b73ecd3bf8feeeae802fee64736f6c634300081c0033",
  "linkReferences": {},
  "deployedLinkReferences": {},
  "immutableReferences": {},
  "inputSourceName": "project/contracts/Catalog.sol",
  "buildInfoId": "solc-0_8_28-ff84111e93a1afb5f3ad5e040819c16099a392af"
}